:10000000205A0120A9170100CB2B0400E51701009D
:10001000E5170100E5170100E517010000000000E9
:10002000000000000000000000000000D5140100E6
:10003000E5170100000000007D140100C11001005F
:1000400069170100E74504006917010069170100FD
:10005000691701006917010069170100691701009C
:10006000AF4504006917010069170100CD45040080
:10007000691701006917010069170100691701007C
:10008000691701006917010069170100691701006C
:10009000691701006917010069170100691701005C
:1000A000691701006917010069170100691701004C
:1000B000691701006917010069170100691701003C
:1000C000691701006917010069170100691701002C
:1000D000691701006917010069170100691701001C
:1000E000691701006917010069170100691701000C
:1000F00069170100691701006917010069170100FC
:1001000001F0FF01102A2BDB10F0070F08D010F8C8
:10011000013B013A8B422DD010F0070F42B3F6D1CC
:10012000F0B441EA012141EA014122F007047FF0E5
:1001300000070023F0E80256083C85EA010586EA3C
:10014000010685FA47F5A3FA87F586FA47F6A5FA78
:1001500087F68EB9EED1F0BC01F0FF0102F0070284
:1001600032B110F8013B013A83EA010313B1F8D12F
:100170000020704701387047002D06BF3546033810
:10018000073815F0010F07D1013015F4807F02BF49
:10019000013015F4C03F0130F0BC0138704700BF9A
:1001A0007BB972B90029BEBF00204FF0004106E0C4
:1001B00008BF00281CBF6FF000414FF0FF3000F077
:1001C000B7B9ADF1080C6DE904CE002909DB002BAD
:1001D0001ADB00F04DF8DDF804E0DDE9022304B09D
:1001E0007047404261EB4101002B1BDB00F040F8FF
:1001F000DDF804E0DDE9022304B0404261EB410197
:10020000524263EB43037047524263EB430300F0F7
:100210002FF8DDF804E0DDE9022304B0404261EB91
:1002200041017047524263EB430300F021F8DDF8CF
:1002300004E0DDE9022304B0524263EB430370475C
:1002400053B94AB9002908BF00281CBF4FF0FF313D
:100250004FF0FF3000F06CB9ADF1080C6DE904CE41
:1002600000F006F8DDF804E0DDE9022304B0704791
:100270002DE9F047089E0D4604468E46002B40F0BF
:1002800082808A42174646D9B2FA82F24AB1C2F156
:10029000200105FA02F320FA01F1974041EA030E2A
:1002A00094404FEA1748230CBEFBF8FCB9B208FB98
:1002B0001CEE43EA0E430CFB01F098420AD9FB18EE
:1002C0000CF1FF3580F01681984240F21381ACF1B9
:1002D000020C3B441B1AA4B2B3FBF8F008FB10332A
:1002E00044EA034400FB01F1A14209D93C1900F1A1
:1002F000FF3380F00181A14240F2FE8002383C448D
:10030000641A40EA0C4000211EB1D4400023C6E923
:100310000043BDE8F08702B9FFDEB2FA82F2002A9C
:100320004FD1CB1B4FEA174E1FFA87F80121B3FBC1
:10033000FEFC250C0EFB1C3345EA034508FB0CF3C1
:10034000AB4207D97D190CF1FF3002D2AB4200F26B
:10035000E7808446ED1AA3B2B5FBFEF00EFB105504
:1003600043EA054408FB00F8A04507D93C1900F111
:10037000FF3302D2A04500F2D7801846A4EB080450
:1003800040EA0C40C0E78B4208D9002E00F0AF8055
:100390000021C6E900050846BDE8F087B3FA83F1FD
:1003A00000294BD1AB4202D3824200F2B780841ABB
:1003B00065EB030301209E46002EAAD0C6E9004E3D
:1003C000A7E7C2F1200C01FA02F3974020FA0CF0E3
:1003D0004FEA174E21FA0CFC1843BCFBFEF1050C4A
:1003E0000EFB11CC1FFA87F845EA0C4501FB08F318
:1003F000AB4204FA02F409D97D1901F1FF3C80F007
:100400008B80AB4240F2888002393D44EB1A85B2C2
:10041000B3FBFEF00EFB103345EA034500FB08F387
:10042000AB4207D97D1900F1FF3C71D2AB426FD9C5
:1004300002383D44EB1A40EA014178E7C1F1200C53
:100440008B4022FA0CF71F4320FA0CF405FA01F353
:100450004FEA174E25FA0CF51C43230CB5FBFEF9A9
:100460001FFA87F80EFB195543EA054509FB08FA00
:10047000AA4502FA01F200FA01F308D97D1909F13F
:10048000FF3047D2AA4545D9A9F102093D44A5EB61
:100490000A05A4B2B5FBFEF00EFB105544EA054474
:1004A00000FB08F8A04507D93C1900F1FF352DD213
:1004B000A0452BD902383C4440EA0940A4EB08048B
:1004C000A0FB02894C45C6464D4619D316D05EB1F5
:1004D000B3EB0E0264EB050404FA0CFCCA404CEAD0
:1004E0000202CC40C6E900240021BDE8F087314675
:1004F00030460EE7AC46EDE6184601E74345E6D246
:10050000B8EB020E69EB07050138E0E72846D3E7B0
:1005100060468FE78146BAE7614677E708464BE7D2
:10052000ACF1020C3D4415E702383C4426E700BF1D
:10053000704700BFF8B515460A4A1C4656682EB1EA
:1005400001B02A46B446BDE8F040604700208DF86F
:10055000000068460AF00EF89DF80000281A207086
:100560000020F8BD000000202DE9F0410D460446B2
:1005700002260AF099F8006820B140F23F1126A047
:1005800002F0CCFF01273DB12878C0B1012805D089
:10059000022812D0032815D027770EE06868C828F3
:1005A00003D3042101F01CF908B1002607E020461E
:1005B000696809F0E2FF012601E001F045FE3046DE
:1005C000BDE8F08120780028F7D1686800F052F982
:1005D0000028E1D069680878C0B1A078052804D067
:1005E0004FF4B7710CA002F099FF2046696809F03A
:1005F000E4FFE07804F1080109F0BDFF0028DCD138
:100600004FF4B87104A002F089FFD6E7204609F044
:10061000BCFF6770D1E700006D70736C5F74696D2B
:1006200065736C6F742E63002DE9F0410E4605462C
:1006300000F010FA8046FF2804D14FF4C57189A05C
:1006400002F06CFF404600F0F9F9040004D140F2DA
:100650008D1184A002F062FFE078A84204D04FF42C
:10066000C97180A002F05AFF00250227082E78D217
:10067000DFE806F0040F2F2F6378838FA07804281B
:1006800006D00328FCD04FF4CB7176A002F046FFD1
:10069000CEE0A078042806D0032804D04FF4CD7112
:1006A00070A002F03BFF0520A0702577207800287D
:1006B0006BD10021204609F060FF207A012804D088
:1006C0006069A0610021626841E0E07801F022FAEF
:1006D000F7E7A078042806D0032804D04FF4DC7193
:1006E00060A002F01BFF207820B12146404600F0B8
:1006F000EFF89BE0A078042812D00120A070626877
:10070000022E0FD00621404690470028F1D00078F5
:100710000028EED04FF4E97152A002F0FFFE85E010
:10072000A770ECE7052140469047002863D0007889
:10073000002860D040F2CD1181E0A078052804D0D7
:1007400040F2D91147A002F0E9FE6268022140465A
:10075000904701462046FFF707FF05464FF406770E
:1007600062E057E0A078052804D040F2DF113DA0F8
:1007700002F0D4FE01216268E9E7A078052804D0E0
:1007800040F2E51137A002F0C9FEBDE8F04101F0EA
:100790005BBDA078052808D0617809B1032804D092
:1007A0004FF4F5712FA002F0B9FE207828B1214650
:1007B0004046BDE8F04100F08BB8207F68B1257756
:1007C000A7706268082140469047002813D000783F
:1007D000002810D04FF4FB7131E0607868B1E07808
:1007E00004F1080109F0C7FE20B94FF4FD711DA006
:1007F00002F094FE6570BDE8F081A7706268072181
:10080000404690470028F6D000780028F3D040F208
:10081000022114E040F207217EE7C5B1012D13D07B
:10082000394610A002F07AFE022DF6D1002EE2D158
:1008300009F037FF00680028DDD040F22221BDE832
:10084000F04108A002F06ABE0421626801E062681B
:1008500003214046904701462046FFF785FE0546A6
:10086000E2E700006D70736C5F74696D65736C6FA7
:10087000742E6300002819D003781349134A13B16A
:10088000012B0ED011E00379012B00D06BB9437915
:100890000BB1012B09D18368643B8B4205D2C06840
:1008A0000EE00379012B02D00BB100207047437991
:1008B0000BB1012BF9D1C368643B8B42F5D2806840
:1008C0009042F2D8012070473D860100FF1FA1072A
:1008D00070B505460C46C87801F072FC18B9C921FC
:1008E0000AA002F01BFE204609F083FE626809217F
:1008F00028469047002808D00078002805D0BDE899
:100900007040CD2101A002F009BE70BD6D70736C06
:100910005F74696D65736C6F742E63002DE9F0412F
:100920000D4600F08BF8040007D0A0786FF0220687
:10093000012806D0022810D103E06FF00100BDE8C5
:10094000F0816FF0150755B12846FFF793FF30B1DE
:10095000287830B1A078022808D03046EFE7384632
:10096000EDE72946204609F010FE03E0294620461F
:1009700009F023FEE07804F1080109F0FCFD20B93C
:100980004FF4277102A002F0C9FD0020D7E7000054
:100990006D70736C5F74696D65736C6F742E63003A
:1009A0002DE9F0410E46050004D000F041F807465D
:1009B00000240AE06FF01500BDE8F081204600F049
:1009C0003DF8807838B1641CE4B2BC42F6D300BF75
:1009D0006FF00B00F0E72746FF2CF9D0204600F01F
:1009E0002DF8044609F005FE074801F00BFCE07005
:1009F000202805D001206560A07037700020DBE75B
:100A00006FF02200D8E700002906000010B5820729
:100A100002D06FF00D0010BD044A1170506018B183
:100A20004A01002109F04DFF002010BD0800002000
:100A300001480078704700000800002004490A7847
:100A4000904201D300207047496801EB4010704785
:100A500008000020094910B503464A6800200978BB
:100A600007E000BF02EB4014E4789C4204D0401C35
:100A7000C0B28842F6D3FF2010BD0000080000205D
:100A80002DE9F8430446C91C1E461546104604F1DC
:100A900008084942089F01F005F84246214602F045
:100AA000DBF9206820F07F402060A819114EC51C9A
:100AB000CFB1012F04D040F297610F4802F02EFD14
:100AC0003068007828446A46211D02F0C5F99DF976
:100AD000000000286068C4BF401C606020F07F40B8
:100AE0006060BDE8F883306800787A2898BF7A2083
:100AF0002844E8E7A00A0020FC1A00002DE9F04194
:100B00001F4614460E460546202A04D14FF42A718A
:100B10001B4802F003FD1B481B4900EB871202EB48
:100B2000440001EB8703202E24D002EB46014078DD
:100B300091F801C0487020216046202C06D0014663
:100B400002EB4100A14205704078F8D193F82640AD
:100B5000202C1ABF02EB440484F801C083F825C09E
:100B60004FF0200C02EB410282F801C083F82610FE
:100B7000BDE8F08193F824C0407883F82400DAE7D8
:100B8000FC1A0000200A0020A00A00202DE9F04FE6
:100B900087B0044600200290A848884600EB8800F1
:100BA000039090F824502020A54FEA460DF1040947
:100BB0008DF80000202D1CBFA24800EB881B38D008
:100BC00005EB850007EB8000061D80682168081A88
:100BD0000002C11700EB116000122AD4608908B32B
:100BE0007089F8B9306809F062FD718996F90820BA
:100BF0001144C91C00F056FF05AA04A902F02CF903
:100C00009DF914000028CCBF0120002000F1330220
:100C100004992068401A0002C11700EB116000120D
:100C2000904206DB0BEB45008AF800504578202DFA
:100C3000C6D19AF8000089F80000202D1CBF814918
:100C400001EB881B00F0F68005EB850007EB800ABE
:100C50006168DAF804000AF10406401A0002C117BC
:100C600000EB1160001227D47089002800F0E280A8
:100C70006089002840F0DE80206809F018FD618955
:100C800094F908201144C91C00F00CFF05AA04A91E
:100C900002F0E2F89DF914000028CCBF01200020EA
:100CA00000F1330104983268101A0002C21700EBF9
:100CB0001260001288427BDA89F800509AF810001E
:100CC000217B884205D90BEB45004578202DBBD10F
:100CD000B0E09DF80400D4E9002100EB800007EBB0
:100CE0008000891A806820F07F42084420F07F400D
:100CF000C4E9002001200290504890F82F0018B15C
:100D000007B00020BDE8F08F0398EA460DF1040912
:100D100090F8245020208DF80000202D1CBF494859
:100D200000EB881B39D000BF05EB850007EB800086
:100D3000061D80682168081A0002C11700EB1160C7
:100D400000122AD4608908B37089F8B9306809F0B4
:100D5000AEFC718996F908201144C91C00F0A2FE6E
:100D600005AA04A902F078F89DF914000028CCBF68
:100D70000120002000F13301049A2068801A00024B
:100D8000C21700EB12600012884206DB0BEB450035
:100D90008AF800504578202DC6D19AF8000089F8CD
:100DA0000000202D1CBF274901EB881B42D000E02A
:100DB00040E005EB850007EB800A6068DAF8041074
:100DC0000AF10406081A0002C11700EB11600012B4
:100DD00023D4708970B3608960BB206809F067FC18
:100DE000618994F908201144C91C00F05BFE05AA32
:100DF00004A902F031F89DF914000028CCBF0120AD
:100E0000002000F1330104983268101A0002C21762
:100E100000EB1260001288420CDA89F800509AF850
:100E20001000217B88427FF654AF0BEB45004578DC
:100E3000202DBCD1029807B0BDE8F08FA00A002099
:100E4000A0070020200A00202DE9F04F04464E485C
:100E50000F4600EB870083B090F824502020DFF885
:100E60002C81994692461070202D1CBF484800EBFB
:100E7000871B38D005EB850008EB8000061D8068D5
:100E80002168081A0002C11700EB116000122AD471
:100E9000608908B37089F8B9306809F008FC718975
:100EA00096F908201144C91C00F0FCFD01AA69460E
:100EB00001F0D2FF9DF904000028CCBF01200020E2
:100EC00000F1330100982268101A0002C21700EBEB
:100ED00012600012884206DB0BEB45008AF80050D6
:100EE0004578202DC6D19AF8000089F80000202D01
:100EF0001CBF274800EB871A41D000BF05EB8500D7
:100F000008EB8007606879683E1D081A0002C11767
:100F100000EB1160001223D4708980B3608970BB2C
:100F2000206809F0C4FB618994F908201144C91CA8
:100F300000F0B8FD01AA694601F08EFF9DF904009A
:100F40000028CCBF0120002000F13301009A306856
:100F5000801A0002C21700EB1260001288420EDAFB
:100F600089F80050387C217B884203D803B00020E8
:100F7000BDE8F08F0AEB45004578202DBED103B0C7
:100F80000120BDE8F08F0000A00A0020A00700208B
:100F9000200A0020044800F47000B0F5000F0CBFD8
:100FA00001200020704700000D2400002DE9F74FBC
:100FB0004FF000089AB016460D46C34601F09CFC5F
:100FC0000446012D18BF022D04D040F67A11FE48C8
:100FD00002F0A4FAFD4901200860FD498968086013
:100FE00000200E90401E1090FA4906EB860001EB9F
:100FF00080031B1D11AF0FCB87E80F0009F057FBD3
:10100000BDF84E209DF94C101144C91C00F04AFD5A
:101010000F90F048BDF84E90B0F82003ADF85400A2
:10102000B9F1000F14BF4FF0010A4FF0000A1198F8
:101030001690BAF1000F09D0E74890F8300028B9AF
:1010400002F00EFA002808BF012700D00027E3486D
:101050000023179300781E46012818BF03281DD1CE
:10106000DE48B0F80280A8EB09001790C84515D9F2
:10107000CDF804D018A90B9108F103010F9849424B
:1010800000F010FD0B9A019901F0E6FE009811990D
:1010900020F07F400090081A20F07F43002F18BFF7
:1010A000322604D19DF85400002818BF0226B4F15E
:1010B000807F08D01198001B0002C11700EB11605F
:1010C0000012012802DA04201A990BE047B1C24845
:1010D00090F8310020B19DF85400061C18BF02267C
:1010E00021460120B9F1000F02D0179A1E2A02DA18
:1010F0009DF8542012B14FF0010B401E8219B748E1
:101100009DF855E000780B901198C01A20F07F4CA4
:10111000ACEB01000002C61700EB16600012904213
:1011200018DB002B18BFCDF844C0119E0497002790
:1011300001F0C4FA301A0002C11700EB116000126E
:101140003E2840DA012D20D0701E049920F07F4007
:1011500021B32EE083B1BEF1000F04BF0B9803282A
:101160000AD027B99DF85400002818BF921E00230A
:101170008DF854309846C7E70FBB9DF85400F0B186
:1011800000208DF85400921EBEE7B4F1807F21D17B
:1011900040F6F3018C4802F0C1F91BE0B4F1807F06
:1011A00007D0211A0902CA1701EB1261091204299A
:1011B00003DD044601F088FA0CE000290ADD1DB0C9
:1011C0000020BDE8F08F701E20F07F44204601F023
:1011D0007BFA5746B4F1807F04D140F612217A4859
:1011E00002F09CF91198129B001B1B1B8BF0010253
:1011F0007B4920F07F4023F07F43824298BFB0F5C7
:10120000800FDCD29942DAD3204609F050FA754AB1
:101210000F9902F1010C0E1AB6EB9C0F24BF431A72
:10122000B3EB9C0F12D3B24203D2101A0844461CEF
:101230000CE09A4204D2511A0844401C464205E090
:1012400040F6F221604802F069F90026624890F801
:10125000350080B9C14534BF40464846BBF1000F58
:1012600014BF00211E210844B04204DB40F62521B2
:10127000554802F053F9284645464FF0000BD84632
:10128000012805D0022001F0B1FC012001F0AEFCE4
:10129000A94516D2A6EB05014FF001034FF003025A
:1012A0004FF0020001F0B2FB002808BF4FF0010828
:1012B000B9F1000F1FD00123A6EB09010322184644
:1012C0000DE010D90123A6EB09010322184601F015
:1012D0009DFB28B37DB1711B01230322022001F085
:1012E00095FBE8B107E055EA090004D040F65D112E
:1012F000354802F013F9012303223146002001F0A2
:1013000085FB68B10125B8F1000F03D01698119044
:101310008DF854B0DFF8D080BAF1000F0ED109E09B
:10132000022001F063FC012001F060FC1DB00020F0
:10133000BDE8F08F284890F8310000B1C7B1DFF860
:1013400098A09AF8300018B101F048FF8AF830B040
:101350009FB1A4F1320020F07F414FF40020C8F883
:10136000000000230322052001F050FBF0B34DE004
:10137000DFF864A09AF83000C8B3174C94F8310035
:1013800050B14FF40020C8F80000052001F02EFCF9
:1013900001F092FF84F831B00EAC0E4894E80E10C4
:1013A000C0F80413C0F80823C0F80C33C0F810C309
:1013B00012AC94E80E10C0F81413C0F81823C0F84B
:1013C0001C33C0F820C313E0FC1A000008050040DD
:1013D00010000020A0070020A00A0020120000201A
:1013E000FFFF3F00FF7F841E08F5014009E003E096
:1013F0001DB00120BDE8F08F01F012FF8AF83050D7
:10140000A6E740F259311C4802F088F84FF08044BA
:10141000052001F0C7FC1949C1F81005C1F81445B1
:101420001749E0120860174C94F8310018B901F020
:1014300035FF84F83150A6EB0900A0F11904002C07
:1014400004DC40F64F210C4802F068F80322012327
:101450002146104601F0DAFA38B10B488068C0F82E
:1014600000B00A48C0F800B096E740F65A2102489A
:1014700002F054F890E70000FC1A000098F00140D8
:1014800004F50140A00A00201000002008050040DB
:101490002DE9F041164C94F83300202818BFBDE820
:1014A000F08194F8326004EB860797F82450202DE1
:1014B00004D140F2A6310F4802F030F80E4901EB9A
:1014C000861000EB4500407887F82400012087F85B
:1014D000270084F82F00294684F833503246022032
:1014E00000F076F8002084F82E00BDE8F0810000BE
:1014F000A00A0020FC1A0000200A00202DE9F05F5D
:10150000DFF8B48098F8325008EB850090F8254059
:10151000202C08BFBDE8F09FDFF8A0A0DFF8A09066
:10152000A9F5207B09EB8517072617F81400012879
:101530000DD0042808BF022609D005280CBF0326B9
:10154000062804D04FF40C611EA001F0E7FFBAF1A9
:10155000000F18BFAFF30080EFF3108072B607EBF7
:1015600044014A7808EB850181F8252091F826206E
:10157000A24204BF202281F82620A8B12A46214693
:10158000012000F025F804EB840031465BF82020B0
:101590002046904798F8325008EB850090F8254097
:1015A000202CBFD1BDE8F09F0848002818BFAFF33A
:1015B000008062B6E2E70000A00A00200000000000
:1015C000200A002072656D2E6300000000000000FC
:1015D0002DE9F04107461748904600250C4600EBE0
:1015E0008816072F07D2DFE807F00B0B0B0B04045C
:1015F0000400012504E040F27E210FA001F08EFFDF
:1016000006F81470002D08BFBDE8F0810C4800EB0F
:10161000880090F8261020290EBF80F8254006EBA0
:1016200041014C70202106EB4402517080F82640A5
:10163000BDE8F081200A002072656D2E6300000075
:10164000A00A00202DE9F35F5B488B4600EB8B0876
:10165000009898F82460012818BF022804D040F6AA
:10166000962156A001F05AFF0027202E49D052485B
:1016700098F82440002590F83510002904BF006830
:10168000857801F01BF8DFF840A104EB84010AEB38
:1016900081014C4B4A688968121A091A22F07F426C
:1016A00021F07F41954298BFB2F5800F01D28B4265
:1016B00025D2464A02EB8B19A44609EB4C014C7823
:1016C000202C12D004EB84010AEB81014A6889685E
:1016D000121A091A22F07F4221F07F41954298BFE9
:1016E000B2F5800FE8D28B42E6D3BCF1200F06D0D2
:1016F0005B46624620210420FFF700FA0446B4420C
:1017000017D13348002818BFAFF3008000F0D6FF90
:10171000294C94F8341020290FD02268216992783E
:101720000244511A0902CA1701EB12610912002979
:1017300003DD02B00020BDE8F09F202E0ED032461F
:101740000099FFF733FC00281CBF88F8277084F845
:10175000346026D002B00120BDE8F09F94F830003C
:1017600018B101F03BFD84F8307094F8310050B1AD
:1017700018494FF400200860052001F037FA01F005
:101780009BFD84F83170042001F030FA01F08EFAEC
:10179000202084F834001048806807600F480760F4
:1017A000D8E75B46324620210420FFF7A7F902B0B4
:1017B0000020BDE8F09F0000A00A002072656D2E99
:1017C00063000000FFFF3F00A0070020200A002068
:1017D0000000000008F5014010000020080500404E
:1017E0002DE9F04F794E074687B096F833008A46C8
:1017F000202804D140F6633175A001F08FFE96F8E1
:10180000330006F11004DFF8D09100EB800009EB03
:10181000800820208DF8000096F8320003AA06EB1D
:10182000800001A990F824507069029070683844D3
:1018300001F012FB9DF90C00002802DD0198401C0C
:101840000190D8F808000199642F084431D3634A05
:101850000021D21B89412CD3D8F80410411A21F061
:101860007F41B1F5800F24D220F07F40606057485F
:1018700084F80CA090F83200EA46202D1CBF58498D
:1018800001EB801B4CD000BF05EB850009EB800805
:101890006068D8F8041008F10406081A0002C1179D
:1018A00000EB1160001228D4708998B3608920B1D0
:1018B00036E007B00120BDE8F08F206808F0F7FEA1
:1018C000618994F908201144C91C00F0EBF805AABD
:1018D00004A901F0C1FA9DF914000028CCBF012031
:1018E000002000F1330104983268101A0002C21778
:1018F00000EB12600012884212DA8AF8005098F861
:101900001000217B884206D80298606007B003204F
:10191000BDE8F08F04E00BEB45004578202DB3D1F6
:101920002A4DE868B0F1FF3F16D000F0C7FEE96825
:10193000081A0002C11700EB11600012022805DC32
:101940000298606007B00220BDE8F08F052001F02A
:101950004DF94FF0FF30E86095F832309DF80020E7
:101960002021202A13BF052005EB830090F82400D6
:10197000FFF7C4F895F83220194901EB821195F868
:10198000332001EB420148706868384468600120E8
:1019900085F82F00687F01280AD128686969407896
:1019A000012811D880B1081A20F07F4000F034FFE0
:1019B0009DF80000202803D00A48407801F06EFE10
:1019C00007B00020BDE8F08F0120ECE7A00A00205E
:1019D00072656D2E63000000A0070020FF1FA107A5
:1019E000200A00201000002030B52A4C054683B0A4
:1019F00094F83300202804D140F62D3126A001F0C0
:101A00008DFD94F83300264A00EB800002EB800342
:101A100094F8320004EB800090F8241094F832001F
:101A200002F5207C0CEB801020292FD001EB810CDB
:101A300002EB8C0C9CF810C0AC4584BF00EB41015C
:101A40004978F1D801EB810102EB8101986849687E
:101A50006568081A0002C11700EB1160001212D469
:101A600008F025FE04466A4601A901F0F5F99DF942
:101A700000000028C8BF241A05F16400844222BF78
:101A8000601B03B030BD002003B030BD03B04FF089
:101A9000FF3030BDA00A002072656D2E630000008B
:101AA000A007002070B50D46134A44190021101AF2
:101AB00071EB010004D240F2F35110A001F02EFDB1
:101AC0001048854204DD40F2F4510CA001F026FDDF
:101AD0000D48854204DA40F2F55108A001F01EFDE0
:101AE0000A488442A8BF0A4804DA002CAABF20464C
:101AF000064870BD201870BDFF7F841E72656D2E74
:101B0000630000000020A10700E05EF80080841E52
:101B100000807BE10C4991F83420824204BF886840
:101B2000704710B500EB8000084901EB8004606845
:101B300008F0BDFDE18994F90C20BDE81040114486
:101B4000C91CFFF7AFBF0000A00A0020A0070020BB
:101B500010B50B4C94F83300202804D140F6A401B2
:101B600008A001F0DBFC94F8330094F83310074A26
:101B700001EB810152F82120BDE8104004211047FB
:101B8000A00A002072656D2E63000000A0070020EF
:101B900070B5644E6449012506F5407408287CD26E
:101BA000DFE800F0045D8DA0B844A5AA94F83000E9
:101BB00018B901F035FB84F83050608B38B101F072
:101BC0004FFC20B940F65C0158A001F0A7FCFFF7DC
:101BD0005FFC84F82D50E168B1F1FF3F0AD001238A
:101BE0000322052000F012FF20B940F661014FA04A
:101BF00001F094FC607F01280AD120686169407877
:101C0000012811D880B1081A20F07F4000F004FEAE
:101C100094F8330094F8331001EB810156F8212039
:101C2000BDE87040012110470120ECE7FFF730FCD0
:101C30004FF0FF30E06094F82D0020B940F67101BC
:101C40003AA001F06BFC94F8330094F8331001EBE8
:101C5000810156F82120BDE8704006211047FFF7AA
:101C600017FC84F82C5001F0FBFB20B94FF40861FD
:101C70002EA001F053FC94F8300018B901F0D0FA0E
:101C800084F8305094F8310068B12A494FF40020AC
:101C90000860052000F0AAFF00E03BE001F00CFB2B
:101CA000002084F8310094F8330094F8331001EBED
:101CB000810156F82120BDE870400021104701F055
:101CC0003FF8608B38B101F0CBFB20B940F68A01B8
:101CD00016A001F023FC18480078032808BF84F8F8
:101CE000215070BD154805608868056070BD087892
:101CF000BDE8704001F0D2BCFFF7CAFB94F8330096
:101D000094F8331001EB810156F82120BDE87040B2
:101D100005211047BDE8704040F69C0103A001F08A
:101D2000FDBB0000A00700201000002072656D2E92
:101D30006300000008F50140120000200805004083
:101D40002DE9F34FFE4895B088460068FD4CC0056C
:101D5000C00D0ED0103840B20028B8BF00F00F0000
:101D600000F1E020ACBF90F8000490F8140D400999
:101D700030D098F800004FF0000B002818BF012861
:101D800004D040F24A71F0A001F0C8FBF04D25B13B
:101D9000002140F24D70AFF300801598ED4900EB43
:101DA000800001EB80004FF00109019025B1002176
:101DB00040F25570AFF30080B9F1000F1FD000BFA3
:101DC00094F832604FF0000A84F82FA0BBF1000FA6
:101DD0001CD043E094F833004FF0010B202804D1CD
:101DE00040F24371D8A001F099FB98F80000002858
:101DF000CCD040F24671D4A001F090FBC6E7D648A3
:101E0000002818BFAFF3008062B6D9E7374601203B
:101E100020EA0706D148402200EB871100EB86102C
:101E200001F0CCFC25B1002140F2B750AFF30080A7
:101E300004EB870104EB8600496A416225B1002169
:101E400040F2BB50AFF3008025B1002140F25F703B
:101E5000AFF3008094F82F000028A7D125B100210E
:101E600040F26970AFF3008000F028FC074602A83A
:101E7000089098F80000002898F80B008DF81500DD
:101E800098F80A108DF81410B8F80810ADF8121070
:101E90000090D8F804305CD000220898FEF7F0FDDE
:101EA000069720680FAA09A990F80390BDF81200C0
:101EB00000F0D2FF94F83300202850D060694844E5
:101EC00020F07F40DDE90221891A0290084420F0C9
:101ED0007F40039031460898FEF758FE98F80B00B3
:101EE0000090B946B8F8081010A8D8F80430D8F80F
:101EF0000C20FEF7C5FD0298039AA0EB090020F024
:101F00007F40A2EB0902119922F07F42B0F5800FC9
:101F100001D2914209D2DDE90221891A781827F00D
:101F20007F4220F07F40CDE9022025B100214FF40F
:101F3000EE60AFF30080894A3946DDF8549002EB39
:101F4000861702A817F81920012A18BF022A1DD0E7
:101F50005CE0D8F80C200898FEF792FDE5E70698BB
:101F6000484400F10409BDF8120028B101F078FAE4
:101F7000002808BF09F1320979484178099881425F
:101F800084BF081A814429F07F409BE72268DDF86E
:101F90000CC0DFF8D0A19378029A521A22F07F4247
:101FA000ACEB010121F07F41934298BFB2F5800F65
:101FB00066D28A4564D34FF0010A10AB0FAA3146AE
:101FC000FEF742FFF0B39DF83C109DF840203346E9
:101FD0008A4261D00520FEF791FD00BF07EB490161
:101FE00048709DF83C00202803BF04EB860080F871
:101FF000249080F827A007EB400018BF80F80190DC
:10200000324649465FF00300FFF7E2FA04EB860030
:1020100090F8277025B1002140F27770AFF300806F
:102020005148002818BFAFF30080EFF3108972B653
:1020300025B1002140F27D70AFF3008094F82F00AD
:10204000002800E024E07FF4B1AE25B1002140F289
:102050008570AFF300800DF1040EBAF1000F9EE819
:102060000F1000F1040080E80E1041D025B10021CE
:1020700040F29270AFF30080BBF1000F2BD115E05E
:10208000324649460420FFF7A3FA4FF0010ABDE7A4
:10209000324649460420B7E7202919BF07EB410023
:1020A000407804EB860090F8240097E79FB194F8FD
:1020B000330020280FD125B1002140F29770AFF3F3
:1020C000008031460220FFF7BDFA20B998F80000E1
:1020D000A8B3012861D025B1002140F2B470AFF35C
:1020E000008084F83260012084F82F004FF0010A4C
:1020F00025B1002140F2BD70AFF30080B9F1000FAF
:1021000054D025B1002140F2C170AFF30080BAF184
:10211000000F11D094F8320004EB800090F82500F5
:10212000202809D025B100214FF4F960AFF30080D9
:102130000E48407801F0B2FAF5B1002118E01FE036
:1021400004ED00E0A00A002072656D2E630000001F
:1021500000000000A007002000000000200A00206E
:1021600012000020FFFF3F000000000010000020D0
:1021700040F2CD70AFF3008017B05046BDE8F08F4D
:1021800025B1002140F29F70AFF3008094F8322017
:1021900004201599FFF71CFAA8E7002D3FF406AEBE
:1021A000002140F2AA70AFF30080FFE50348002849
:1021B00018BFAFF3008062B6A3E700000000000084
:1021C00010B5202811D20E4991F83230A1F18002C9
:1021D00002EB831C1CF810303BB191F8323002EB5B
:1021E000831212F81020012A01D0002010BD91F8AE
:1021F000322001460020FFF7EBF9012010BD00005E
:10220000A00A002003460E4810B590F832200024A2
:10221000803800EB821000BF10F8141029B1611C47
:10222000CCB2202CF8D3202010BD064904EB84004A
:1022300041F8203021460120FFF7CAF9204610BDA1
:10224000A00A0020A00700202DE9F04100F036FA96
:10225000054600F02BFD444CE068B0F1FF3F1CBF89
:102260004FF0FF30E06094F83500C8B9D4E90401BC
:10227000081A0002C11700EB116000124FF40C7134
:1022800001F0BCF861690844281A0002C11700EB8C
:102290001160001204D440F24B4134A001F03EF929
:1022A000607F88B100F02EFB94F82E0020B140F240
:1022B0005C412EA001F032F9012784F82E7094F8C9
:1022C000330020280BD105E0E81C20F07F4000F00F
:1022D000FBF9E9E740F25F4124A001F01FF994F80F
:1022E0003380202084F8330084F83400002584F8FB
:1022F0002C5084F82D501F4865600078022816BFC6
:1023000003280120002084F8200094F832604FF068
:1023100001003146FFF796F90028F8D0164800EB87
:10232000861010F81800022804D1324641460620D3
:10233000FFF74EF984F82F7004EB860090F8250023
:10234000202803D00D48407801F0A8F994F8200027
:10235000002808BFBDE8F08100F0F2FC84F82050AE
:1023600084F82150BDE8F081A00A002072656D2E2E
:102370006300000012000020200A0020100000204E
:1023800030B51F4C054683B094F83300202804D1A3
:1023900040F6CE211BA001F0C1F8E068B0F1FF3F8C
:1023A00004D040F6CF2117A001F0B8F82946A06864
:1023B000FFF778FB01AA694600F04EFD9DF9040085
:1023C0000F28CCBF012000200099084420F07F4155
:1023D000E16094F82D00002804BF03B030BD012354
:1023E0000322052000F012FB00281CBF03B030BD03
:1023F00040F6D72103B003A0BDE8304001F08EB80D
:10240000A00A002072656D2E6300000070B5224C9A
:10241000202084F8240084F8250084F82600002574
:1024200084F8275084F8325084F83300691E6560C0
:10243000E16084F82C5084F82D5084F8205084F802
:10244000215084F8340084F83050144884F8315016
:1024500084F83550057045704580FEF79BFD0028D7
:102460000CBF0F480F4820600F481021491E85708F
:1024700000F8045FFAD1012084F82E000B4CFF20F5
:1024800020700B4801F0E0F8607001F055F9A06091
:10249000BDE8704000F0A4BCA00A0020120000209B
:1024A000E6B10000EAB100001E0A00201000002082
:1024B000FD1400002DE9F041244CD4F804034FF042
:1024C000000510F4803F4FF400664FF0E0271CBF7A
:1024D000D4F8400100280BD04FF48030C4F8080332
:1024E000C4F84051C7F880624FF00400FFF750FB7A
:1024F000D4F8040310F4003F1CBFD4F844010028B2
:102500000BD04FF40030C4F80803C4F84451C7F8A6
:1025100080624FF00500FFF73BFBD4F8040310F492
:10252000802F1ABFD4F848010028BDE8F0814FF48D
:102530008020C4F80803C4F84851C7F88062BDE899
:10254000F0414FF00600FFF723BB000000B0004051
:102550002DE9F0413A4C207804286BD0E51C01218C
:10256000287878B1012808BF617006D0607820B95A
:102570004FF45C7133A000F0D1FF0220287068781E
:1025800000F034FB354DD5F804034FF0000810F48B
:10259000002F4FF480764FF0E0271CBFD5F84C0198
:1025A000002808D04FF0030000F020FBC7F880623D
:1025B0000320FFF7EDFAD5F8040310F4802F1CBFB9
:1025C000D5F84801002808D04FF0020000F00EFBBB
:1025D000C7F880620220FFF7DBFAD5F8040310F495
:1025E000003F1CBFD5F84401002808D04FF001007F
:1025F00000F0FCFAC7F880620120FFF7C9FAD5F8AD
:10260000040310F4803F1ABFD5F840010028BDE84C
:10261000F0814FF0000000F0E9FAC7F88062042072
:102620002070C4F80880C5F80082BDE8F0410020A1
:10263000FFF7AEBABDE8F0410720FFF7A9BA0000E6
:102640001C00002072656D5F68616C5F6576656E69
:10265000745F74696D65722E630000000080004035
:10266000012213024FF0E0210020C1F8803101F572
:10267000C071BFF34F8FBFF36F8FC1F800310C49AA
:102680004A60431EC1F808330A4B1860C1F8400184
:102690001B1D1860C1F844011B1D1860C1F84801DA
:1026A0001B1D1860C1F84C010A610349487070474E
:1026B00000800040408500401C0000200148006868
:1026C0007047000004B500402DE9F05F424E04461B
:1026D000F71E96F800C0F868BCF1010F04BFA042D5
:1026E000BDE8F09F4FF040413C4A11603C496FF417
:1026F0008023C1F808333B4A4FF00005BCF1000FBE
:1027000057D06FF4A023C1F848331560C1F8445185
:10271000D1F848214FF0E0294FF00108002A04BF0A
:102720004FF40062C9F880224FF48033C1F80833B7
:10273000C1F84833C1F840512B4AD2F800A0A4EBAD
:102740000A0A2AF07F4BBBF1020F3CD34FF0020A7A
:10275000BBF5800F37D2C1F84045C1F84433BCF116
:10276000000F05D01168411A21F07F410229F9D3E9
:10277000C7F808803D70FFF773FF1C480560001D17
:10278000C0F800A01A49042008601A49C1F80C805A
:10279000BA68C1F800228101C9F88012C9F8001195
:1027A000154A41071160FC60707086F80080BDE832
:1027B000F09FC1F84833114B1D60C1F840511560BE
:1027C000C1F84451A4E7C1F84055BDE8F05F40F2BC
:1027D000A3110BA000F0A2BE1F00002008F50140CD
:1027E00000B0004044B5004004B5004004850040FE
:1027F000108500400080004004F5014040B50040D5
:1028000072656D5F68616C5F6576656E745F746933
:102810006D65722E6300000070B52B4E0446F068A3
:10282000A04214BF01200020284D2978022901D0A0
:1028300010B106E028B970BD40F2B11124A000F03B
:102840006DFE707820B940F2B51121A000F066FE4F
:1028500025494FF08040086024498313C1F80833AC
:10286000C1F848330020C1F84001214AD2F800C025
:10287000A4EB0C0C2CF07F4CBCF1020F1AD3BCF56E
:10288000800F17D2C1F84045C1F84433287800289A
:1028900018BFF16805D01068081A20F07F43022B9A
:1028A000F9D3144A0220410711600421F4606970D1
:1028B000287070BDC1F84005BDE8704040F2C111FC
:1028C00003A000F02BBE00001C0000201F00002011
:1028D00072656D5F68616C5F6576656E745F746963
:1028E0006D65722E6300000008F5014000B00040E5
:1028F00004B5004004F501400148C068704700007D
:102900001C0000202DE9F04132486FF48023C0F80C
:102910000833314F314A0024397861B16FF4A02374
:10292000C0F848331460C0F8444100BFD0F84801F3
:10293000012680B909E0C0F84833294B1C60C0F873
:1029400040411460C0F84441F0E74FF0E0224FF4FA
:102950000060C2F88002022904D040F2CD1121A00B
:1029600000F0DCFD254A1068254DC01C20F07F409A
:10297000E968DFF8908088420BD01368CB1A23F007
:102980007F43042B05D3B3F5800F02D2FFF79CFEE3
:102990001BE01068081A20F07F40022813D3B0F51E
:1029A000800F10D218494FF080400860AE602C7044
:1029B000C8F80460C8F80C604000091F08600420D3
:1029C00078703E7001E0AE602C70A868C8F8000214
:1029D000BDE8F08100B000401F00002044B5004079
:1029E00040B5004072656D5F68616C5F6576656ECD
:1029F000745F74696D65722E6300000004B5004059
:102A00001C0000200080004008F501402DE9F0473F
:102A10000646DFF894A10127994615460C464FF06B
:102A20000008072E80F0B880DFE806F004040404F4
:102A3000707070005D48C168B1F1807F04BF40785C
:102A4000002804D14FF4007159A000F067FD9AF8F6
:102A50000000022837D19AF801108A0002F1804361
:102A60000A1F1206920D02F1804203F5004302F59F
:102A7000304200BF4FF0000C012802D0022810D0D5
:102A80001EE0042905D2D3F840A1BAF1000F17D1F6
:102A900004E0D2F840A1BAF1000F11D14FF0004C80
:102AA0000EE0042905D2D3F840A1BAF1000F07D1F6
:102AB00004E0D2F840A1BAF1000F01D14CF0804CF3
:102AC0001CF0804FD6D1404A06F1100007FA00F101
:102AD000C2F80813B000104475B10764D0F840C5BF
:102AE000A4EB0C0323F07F439D4298BFB3F5800F06
:102AF00028BFC0F840854CD2C0F84045B9F1010F5D
:102B000008BFC2F804130120BDE8F0879AF800005E
:102B100040B19AF80100B04204D140F2272124A02C
:102B200000F0FCFC301FC6B2B9F1010F18BF4FF026
:102B30000009032E04D340F2011124A000F0EEFCA2
:102B4000284906F1100007FA00F0C1F80803C1F89F
:102B50004803B2005318C3F8408175B1224AD2F835
:102B600000C0A4EB0C0222F07F42954298BFB2F560
:102B7000800F28BFC3F840850BD2C3F84045B9F198
:102B8000000F18BFC1F80403C1F844030120BDE8D9
:102B9000F0870020BDE8F0874FF40B7104A000F02F
:102BA000BDFC0020BDE8F0871F0000201C000020B5
:102BB00072656D5F68616C5F6576656E745F746980
:102BC0006D65722E630000000080004072656D5FCD
:102BD00068616C5F6576656E745F74696D65722E91
:102BE0006300000000B0004004B50040F8B50127C4
:102BF0000024072843D2DFE800F00404040416167A
:102C00001600224A00F1100107FA01F1C2F8081378
:102C100081001144C1F84045C1F840411C4951F8B8
:102C200020000090F8BD1B4D011FCEB2297879B16C
:102C30006A7882420CD1184A4FF040401060012956
:102C400008BFFFF70DFD2C7014494FF08070C8606D
:102C500006F1100007FA00F11148C0F80813C0F897
:102C60004813B00000F1804000F53040C0F8404506
:102C7000C0F840410B4850F826000090F8BDBDE870
:102C8000F84040F29921084800F048BC008000401C
:102C9000408100401F00002008F501401C0000207A
:102CA00000B0004040B10040CC2B00001E496FF442
:102CB0008023C1F808331D481D4A90F800C0002049
:102CC000BCF1000F0AD06FF4A023C1F848331060A4
:102CD000C1F84401D1F8481181B909E0C1F848337D
:102CE000144B1860C1F840011060C1F84401F1E7CD
:102CF0004FF0E0224FF40061C2F880120E494FF00D
:102D0000FF32C1F808230D4A1060C1F84001121DBE
:102D10001060C1F84401121D1060C1F84801121D75
:102D20001060C1F84C01704700B000401F00002047
:102D300044B5004040B50040008000404085004060
:102D4000084890F902000028B8BF704700F01F0142
:102D5000012202FA01F14009800000F1E020C0F8F0
:102D6000001270471C00002010B507280DD2DFE8C4
:102D700000F00404040406060600074902E0001FF0
:102D80000649C0B201EB800010BD4FF41471044835
:102D900000F0C4FB002010BD4081004040B1004065
:102DA000CC2B000010B507280DD2DFE800F004049A
:102DB000040406060600074902E0001F0649C0B2E7
:102DC00001EB800010BD4FF41471044800F0A6FB25
:102DD000002010BD4081004040B10040CC2B0000DD
:102DE00070B51948002404210470C01E01708905C3
:102DF000C160FFF735FC01254FF0E02CEB02CCF869
:102E00008031BFF34F8FBFF36F8FCCF880320F4A02
:102E1000556095600E4801680029FCD1481EC2F833
:102E20000803C2F848030B480460C2F84041001D83
:102E30000460C2F84441001D0460C2F84841CCF867
:102E40000031156070BD00001F00002000B0004080
:102E500004B5004040B50040430B48F2376C03FB1B
:102E60000CF31B0C4FEA432CC1F800C0DFF838C04C
:102E700003FB0C030D484CF2F72C5843400D10FB9C
:102E80000CFC0CEB432303F580735B1213700B688F
:102E90001844086010781F2818BF70470020107071
:102EA0000868401C08607047F7C2FFFF6F0C010004
:102EB0002DE9F0414FF480718D05284607F024FC80
:102EC00080464FF48271284607F01EFC0026074614
:102ED000B8F1000F0AD00120C5F80803074C20798B
:102EE00020B12671A06908B18047A6610FB1C5F86D
:102EF00004614046BDE8F04100F048B82C000020D5
:102F000010B500F08DF900F0ABFA022308495A071A
:102F100030B108480360012010610320487203E0CB
:102F20004B720120C2F804030020C87110BD0000DC
:102F30002C000020340C004070B5134CA079F0B187
:102F4000012803D0E179401E814218DA00F088FAA6
:102F5000054600F037FBA179012902D9E179491C26
:102F6000E1710DB1616900E02169411A022902DABB
:102F700011F1020F07DC0DB1606100E02061BDE8D6
:102F80007040FFF7BDBF70BD2C0000202DE9F05F41
:102F900006464FF080454FF48671284607F0B4FB93
:102FA00082464FF48871284607F0AEFB244C8346D6
:102FB00094F8008004F1080007F019FC20B14FF4E8
:102FC000C37120A000F0AAFADFF88890012746B16B
:102FD000607A022805D1032060720221C9F800102E
:102FE0002F610026BAF1000F0ED0C5F80C61607A8F
:102FF000032804D040F29D1112A000F08FFAC9F806
:103000000060677200F0EAF8BBF1000F07D0C5F866
:103010001061607A012801D1FFF78EFF6F61B8F16E
:10302000000F07D02670607A012801D1FFF768FFF2
:1030300000F0D4F8BDE8F05F0148083007F0EEBBBF
:103040002C0000206D70736C5F636C6F636B2E637C
:1030500000000000340C00402DE9F05FDFF86091C3
:10306000017843788278002489F80A1089F80530BD
:1030700089F806200646274689F807404FF0804A1F
:10308000052917D2DFE801F01B0305101300012406
:1030900015E000F0C5F854460121204607F039FB41
:1030A0000028F9D002240AE04FF4003407E04FF47E
:1030B000403404E04FF41E7142A000F02FFA07F0F4
:1030C00054FB58B100F0E6F904F00305A84205D11D
:1030D000284607F03AFB0028FAD053E04FF00108E9
:1030E0005546CAF80C80CAF80471CAF8184507F0AA
:1030F000A0FB40B907F0A7FB28B907F0AEFB10B959
:1031000007F0BFFB38B14FF08050D0F8440231498E
:10311000C0F3423008602F491031C1F8008002210D
:10312000C5F80413C5F80880DFF8ACB0DBF8001070
:10313000C94341F30018DBF8001041F01001CBF84F
:10314000001008F1010801E000F008FB4FF4827163
:10315000284607F0D9FA0028F6D004F003042046E8
:1031600007F0F3FA0028FAD0B8F1000F05D1DBF828
:10317000001021F01001CBF800100221C5F808134F
:10318000C5F8047199F806004C4670B1307860B902
:1031900000F066F9054600F015FA6FF0004215B12F
:1031A000C4E9042001E0C4E904020121504607F00B
:1031B000B0FA08B100F04EF96772BDE8F09F000068
:1031C0002C0000206D70736C5F636C6F636B2E63FB
:1031D000000000003C05004010ED00E070B5EFF38A
:1031E000108472B6094D687818B9FF2108A000F064
:1031F00095F96878401E6870687818B9A87808B999
:1032000000F03CF9002C00D162B670BD2C0000200B
:103210006D70736C5F636C6F636B2E6300000000F6
:1032200010B5EFF3108472B606484178491C41701E
:103230004078012801D107F083FA002C00D162B652
:1032400010BD00002C000020054810B5C17821B148
:1032500000210171C170FFF7C1FF002010BD000007
:103260002C00002070B50C4CE17861B90125E570A7
:10327000A061FFF7D5FF00F0F3F830B1A06910B1FD
:1032800080470020A061002070BD4FF08040257174
:10329000C0F80453F7E700002C000020EFF3108083
:1032A00072B604498A78521C8A70002800D162B62E
:1032B000704700002C00002070B5EFF3108472B648
:1032C0000A4DA87820B940F2231109A000F026F990
:1032D000A878401EA870687818B9A87808B900F0D6
:1032E000CDF8002C00D162B670BD00002C0000208B
:1032F0006D70736C5F636C6F636B2E630000000016
:103300002DE9F04104006FF015003BD0217804292D
:1033100038D80029617837D0002933D1A178002925
:1033200030D1002007F0DFF9002007F0CFF94FF08F
:1033300080484FF0FF31C8F808130025C8F8005145
:10334000C8F80451C8F80C51C8F81051134E7570E4
:10335000A088B08107F0EBF9012708B1F77077700A
:103360000121404607F0D5F908B100F073F8204676
:10337000FFF772FE002007F0A9F94FF0E021284680
:10338000C1F80071BDE8F0810029FBD02029F9D8EF
:10339000A1782129F6D80129C3D1F3E72C00002018
:1033A000F8B5154DA87A002825D14FF08044182093
:1033B000C4F808030126A6614FF42070ADF80000A0
:1033C000BDF80000411EADF80010F9D20027C4F886
:1033D0000C71C4F810710848083007F01BFA2F7000
:1033E000FFF78EFD6661687900F07F00C4F838054C
:1033F0001820C4F80403F8BD2C00002070B5024664
:10340000002000291DD0A2FB0101440A44EAC15456
:10341000480A641C40F1000040F2A175611940F1B6
:103420000000491C40F100020020D1F1FF31904121
:1034300003D26A2103A000F071F804F5F464B4FB30
:10344000F5F070BD6D70736C5F636C6F636B2E63B2
:103450000000000001490120087070476000002052
:103460004FF08040D0F8000118B9034800780028D8
:1034700000D0012070470000600000204FF0804025
:10348000012141600021C0F800110148017070471E
:10349000600000200248006800F003007047000050
:1034A0001C04004010B541B1012909D04FF442710C
:1034B00006A000F033F8002010BDD0F8140401E09D
:1034C000D0F8080400F0010010BD00006E72665FC5
:1034D000636C6F636B2E6800064810B500210160B5
:1034E00001210160084607F057F9BDE810400120AE
:1034F00007F045B9FC1F0040074810B501214160A5
:10350000891EC0F808130C2007F046F9BDE81040EA
:103510000C2007F034B9000000C00040024A526895
:1035200002B11047FEE700004800002070B5174CBC
:1035300006460D46607810B14FF0FF3070BD06B9F9
:10354000134E62602570FFF7C7FFFFF7D5FF3046C7
:10355000FFF7D6FE0600F1D1FEF758FFFFF720FF78
:1035600007F04CF8284607F00AF90120002D09DB86
:1035700005F01F0100FA01F16A09920002F1E02250
:10358000C2F800116070304670BD00004800002095
:10359000BAA70000014840787047000048000020AA
:1035A000074890F90000002809DB00F01F02012104
:1035B00091404009800000F1E020C0F800127047FF
:1035C000480000202DE9F04101264FF0E0223103B0
:1035D0004FF000084046C2F88011BFF34F8FBFF391
:1035E0006F8F164CC4F800010C2007F0F3F8144D4F
:1035F0002868C04340F30017286840F01000286096
:10360000C4F8046326607F1C02E000BF00F0A6F847
:10361000D4F800010028F9D01FB9286820F0100064
:103620002860084805686660C4F80863C4F800812B
:103630000C2007F0CFF82846BDE8F08100C000401C
:1036400010ED00E008C5004010B5024605200D4908
:1036500004E000BF01EBC0031B7943B1401EC0B2C0
:10366000F8D24A2108A0FFF759FFFF2010BD41F80A
:10367000302001EBC00100224A718A7101220A71D7
:1036800010BD0000D80A00206D70736C5F7369670D
:103690006E616C6C696E672E6300000010B50446A5
:1036A000052803D359210CA0FFF738FF0F4800EB82
:1036B000C4042079012803D05A2107A0FFF72EFF68
:1036C0006079A179401CC0B2814200D06071BDE830
:1036D0001040FFF765BF00006D70736C5F73696722
:1036E0006E616C6C696E672E63000000D80A002062
:1036F00070B505250E4E0F4C16E0217806EBC10083
:103700000279012A08D1427983799A4204D0427918
:10371000827156F8310080472078401CC0B220707A
:10372000052801D3002020706D1EEDB2E5D270BDDA
:10373000D80A00206100002000B507F0B8F828B9C9
:1037400007F0ABF810B907F092F808B1014800BDD6
:10375000014800BD00E701400C05004010B507F02E
:1037600090F8E0B1EFF31080D8B1002172B61248A2
:1037700002680368C2F3001243F0100303604FF0C5
:10378000E023D3F80042D3F804321C4300D040BFFA
:1037900020BF00BF00BF00BF00BF22B107E020BFB5
:1037A00010BD0121E2E7026822F010020260002948
:1037B000F6D062B610BD000010ED00E010B580EA52
:1037C00001040346A40707D015E0002A15D011F81C
:1037D000014B03F8014B521E9C07F6D102E010C9C1
:1037E000121F10C3042AFAD205E000BF11F8014BE2
:1037F00003F8014B521E002AF8D110BD0A4810B53B
:10380000817804290AD010290CD020290AD0BDE8DB
:10381000104040F2AD1105A0FFF780BE102181706D
:103820001FF08AFB10BD0000500000206E72665F22
:103830007261616C5F72656D2E63000070B50B4C38
:10384000207820B940F2FB2109A0FFF767FEEFF3D3
:10385000108572B6A078102803D10820A070FEF75A
:10386000F3FC002D00D162B670BD000050000020B6
:103870006E72665F7261616C5F72656D2E630000CF
:1038800070B5144C207820B940F2B12112A0FFF796
:1038900045FEEFF3108572B6607940B1022808D07A
:1038A0004FF431710CA0FFF739FE65B10CE0012037
:1038B00003E0A1780020042901D06071F5E7607170
:1038C00044F041FBF1E762B6E078BDE87040FFF7F5
:1038D000E5BE0000500000206E72665F7261616C90
:1038E0005F72656D2E63000070B5104C207820B9B2
:1038F0004FF437710EA0FFF711FEEFF3108572B68B
:10390000607940B1012808D04FF43B7108A0FFF75F
:1039100005FE2DB105E0022000E000206071F8E70F
:1039200062B6E078BDE87040FFF7B8BE50000020F6
:103930006E72665F7261616C5F72656D2E6300000E
:1039400010B5144C207820B140F26E2112A0FFF780
:10395000E5FD002060700120A07013484FF4C851AD
:10396000016005210181B721418141F2941141603B
:103970000E48FFF769FEE0700D48FEF743FC20712A
:10398000202804D140F27D2103A0FFF7C7FD0120CC
:10399000207010BD500000206E72665F7261616C15
:1039A0005F72656D2E630000100B0020F93A000075
:1039B000013A00000E488178042901D000207047A8
:1039C000807980B10B48011DD1F84015D0F804056D
:1039D000081A401E084920F07F40A0FB0101C00BDF
:1039E00040EA41407047054801684089081A70471D
:1039F0005000002000B0004040420F00100B00209B
:103A00002DE9F041354C0F462179884204D040F22F
:103A1000C31133A0FFF782FD354ED6F8040500250B
:103A2000082F33D2DFE807F032043D3D231C4E431C
:103A30000121022000F034F9607858B10420A07010
:103A40002C480068A060A5716079022841D044F03C
:103A50007AFA3EE02020A070BDE8F041FEF7F4BB0A
:103A6000BDE8F0414FF4FB711DA0FFF757BD607832
:103A700000280BD0A07804280AD04FF0E0210220C3
:103A8000C1F88001BFF34F8FBFF36F8FBDE8F081A6
:103A900000F094F810B1D6F84401B0B944F08EF8B3
:103AA000F4E70121022004E00120A070EEE70121EB
:103AB000282000F0F5F860780028F5D0BDE8F04146
:103AC00000F0C2B800F07AF818B1BDE8F041FFF795
:103AD00095BEBDE8F04100F079B80000500000202C
:103AE0006E72665F7261616C5F72656D2E6300005D
:103AF00000B00040100B002070B5EFF3108472B6D8
:103B0000254D002668796E7100283CD001280AD026
:103B100002281ED084F31088BDE870404FF4C771AE
:103B20001EA0FFF7FBBC84F31088687820B140F238
:103B30003B111EA0FFF7F2FC0021142000F0B0F8AA
:103B400001206870A87801281FD1BDE8704000F0FE
:103B50007BB8687820B94FF4A67114A0FFF7DEFC9B
:103B60006E70A87808280ED004DC02280BD0042838
:103B700004D10BE0102809D0202804D04FF4B471F0
:103B80000AA0FFF7CBFC84F3108870BD2020A8703A
:103B9000FEF75AFBF7E70000500000206E72665FE8
:103BA0007261616C5F72656D2E6300006E72665F9C
:103BB0007261616C5F72656D2E63000002488079EE
:103BC000012800D0002070475000002070B504206C
:103BD000FDF70AFF164D2968814200D808460646BF
:103BE0000421FDF7FDFD134C012140B101281AD03D
:103BF000BDE870404FF497710FA0FFF78FBC2868A5
:103C0000B042A06806D1FEF7BBFB2868A168084453
:103C1000A06070BD3044A060A1716989401ABDE800
:103C20007040FEF7ADBBA1716889A168081AF6E77C
:103C3000100B0020500000206E72665F7261616C94
:103C40005F72656D2E6300000F4810B500210160A2
:103C500001228160027001810421817200F1100152
:103C60000A6842604968C1600848022181700649BB
:103C70000079FEF765F8002805D1BDE81040F12174
:103C800003A0FFF74BBC10BD000B0020500000202C
:103C90006E72665F7261616C5F72656D2E630000AB
:103CA00070B505460D480E46847814B1601E044276
:103CB00003D0CB210AA0FFF731FC26B12C40A0068F
:103CC0000AD1D02103E0AC43A00605D1D421BDE840
:103CD000704003A0FFF722BC70BD00005000002020
:103CE0006E72665F7261616C5F72656D2E6300005B
:103CF00038B5A0F10B040D460F2C03D9362108A0CE
:103D0000FFF70CFCE1B26B462A460420FCF712FCDC
:103D100018B13F2102A0FFF701FC9DF9000038BD5A
:103D20006E72665F3830323135345F66616C2E6397
:103D3000000000002DE9F14F03F11C0402EB840C9C
:103D40004FEA930B8A68CB680868496800F046F927
:103D50003CE9F0006040694072407B400BF1060E88
:103D60004EE083EA134480EA134582EA134746BAD9
:103D700096EA3444604000F00F1684EA063420F0DE
:103D80000F1684EA161054BA94EA0106724002F043
:103D90000F1486EA043622F00F1486EA14124CBA85
:103DA0006540694001F00F1485EA043521F00F14D5
:103DB00085EA14115CBA67407B4003F00F1487EA70
:103DC000043723F00F1487EA141344BA44404DBA61
:103DD0004D4056BA56405FBA5F4087EA174886EAB8
:103DE000174B84EA17464FEA38488BEA1B4485EAAA
:103DF0001B4788EA1B4580EA3440694072407B409B
:103E000000F0703400F0803500F00F3040EA4400DC
:103E100040EAD50080EA900404F0332480EA84006C
:103E2000604001F0703401F0803501F00F3141EA5B
:103E3000440141EAD50181EA910404F0332481EA86
:103E40008401614002F0703402F0803502F00F32DC
:103E500042EA440242EAD50282EA920404F03324A0
:103E600082EA8402624003F0703403F0803503F08C
:103E70000F3343EA440343EAD50383EA930404F08F
:103E8000332483EA84036340C943DB4381EA0004AB
:103E900083EA044686EA020183EA014382EA334563
:103EA00083EA144383EA040484EA00077FEA040AED
:103EB0008AEA024A8AEA010B87EA11488AEA374A03
:103EC00080EA060181EA1A418AEA030A04EA0A0042
:103ED000454088EA040707EA0B0041408AEA0B06DE
:103EE00008EA060084EA34428AEA3A4602EA06030D
:103EF00058404540414087EA37438BEA3B4003EA5C
:103F0000000985EA090582EA0309464009EA06062E
:103F1000714085EA010005EA3546464006EA31412E
:103F200081EA304181EA364606EA304686EA35467D
:103F300034400F4086EA010508EA050886EA364063
:103F4000024088EA020881EA314213405C4080EA7C
:103F5000020309EA030987EA0907674088EA0408B7
:103F600006EA0A0601EA0B018AEA0B0425408AEAFE
:103F70003A44204045408BEA3B4B02EA0B02564054
:103F800084EA0B04234059406E40694087EA36407A
:103F900080EA384080EA060380EA104481EA13454B
:103FA00085EA344585EA17427D4082EA354180EA58
:103FB00005403CE9F0006040694072407B40BEF142
:103FC000010E3FF6CEAE00F05FF810BC20606160DD
:103FD000A260E360BDE8F08F00F002BA80EA10143E
:103FE00004F0F01480EA0410604081EA111404F037
:103FF000F01481EA0411614082EA121404F0F01412
:1040000082EA0412624083EA131404F0F01483EA93
:104010000413634080EA102404F47F4480EA0420FF
:10402000604081EA112404F47F4481EA0421614064
:1040300082EA122404F47F4482EA0422624083EA82
:10404000132404F47F4483EA0423634081EA500488
:1040500004F0553480EA4400614083EA520404F0DD
:10406000553482EA4402634082EA900404F0333417
:1040700080EA8400624083EA910404F0333481EAE8
:1040800084016340704700BF82EA900404F0333437
:1040900080EA8400624083EA910404F0333481EAC8
:1040A0008401634081EA500404F0553480EA4400FE
:1040B000614083EA520404F0553482EA44026340CA
:1040C00080EA102404F47F4480EA0420604081EAFE
:1040D000112404F47F4481EA0421614082EA12241D
:1040E00004F47F4482EA0422624083EA132404F445
:1040F0007F4483EA0423634080EA101404F0F01440
:1041000080EA0410604081EA111404F0F01481EA9E
:104110000411614082EA121404F0F01482EA0412DD
:10412000624083EA131404F0F01483EA041363403A
:10413000704700BF2DE9F04F4FF2F00280EA1031D6
:10414000114080EA0130484041088208C3084FF01E
:10415000000EA3E000F0113001F0113102F0113235
:1041600003F0113340EA410040EA820040EAC30014
:104170004FF2F00280EA1031114080EA01304840ED
:10418000BDE8F08F2DE9F14F94464FEA930B8A6812
:10419000CB6808684968FFF721FF0BF1060E33E092
:1041A00083EA134480EA134582EA134746BA96EA43
:1041B0003444604000F00F1684EA063420F00F16F5
:1041C00084EA161054BA94EA0106724002F00F1401
:1041D00086EA043622F00F1486EA14124CBA6540BF
:1041E000694001F00F1485EA043521F00F1485EAC7
:1041F00014115CBA67407B4003F00F1487EA043760
:1042000023F00F1487EA1413BCE8F0006040694003
:1042100072407B4000F0E03400F0103500F00F30C9
:1042200040EA540040EAC50080EA900404F03324D8
:1042300080EA8400604001F0E03401F0103501F0C4
:104240000F3141EA540141EAC50181EA910404F0C9
:10425000332481EA8401614002F0E03402F0103539
:1042600002F00F3242EA540242EAC50282EA9204A4
:1042700004F0332482EA8402624003F0E03403F065
:10428000103503F00F3343EA540343EAC50383EACE
:10429000930404F0332483EA8403634081EA3247C1
:1042A00087EA134581EA354690EA060484EA034B1F
:1042B00082EA1B4280EA044484EA054483EA144A01
:1042C00085EA14448BEA044B84EA374481EA0B41C3
:1042D00081EA164104EA0A00454082EA04082BEA12
:1042E000080041408AEA0B0602EA060084EA3443E9
:1042F0008AEA3A4603EA060778404540414088EAA0
:1043000038478BEA3B4007EA000985EA090583EA5A
:104310000709464006EA0906714085EA010005EAF8
:104320003546464006EA314181EA304181EA364667
:1043300006EA304686EA3546344008EA010886EA4D
:1043400001052A4086EA364003405A4081EA31435B
:104350001F407C4080EA030709EA070988EA090848
:10436000544088EA020806EA0A0601EA0B018AEAD2
:104370000B0215408AEA3A42104045408BEA3B4026
:1043800003405E404240174079404D404E40E44378
:10439000F64386EA18435D4085EA054083EA134305
:1043A00086EA034183EA384284EA114383EA0443FC
:1043B0005FEA3343BEF1010E3FF6F2AE3FF5CAAEFF
:1043C000BCE8F0006040694072407B40FFF75CFE53
:1043D00010BC20606160A260E360BDE8F08F00BFA8
:1043E0002DE9F04102F11C050646074600EB850861
:1043F00051F8040B46F8040B043AF9D14FF0010CC4
:10440000FFF798FE5FEA302080EA0C004FEA4C0C80
:104410004FEA1C2140F21B1201FB02F28CEA020C53
:104420001ECF41404A4053405C401EC620004645D6
:1044300010D02C2DE4D03C2D06D1FFF77BFE06CF0B
:1044400041404A4006C6100006CF41404A4006C6D9
:104450001000D5E736E90F00FFF7C0FD86E80F0032
:10446000043DF7D1BDE8F08170B491E87800B2E87E
:1044700002105B1854EB0C04B2E802104D4156EBED
:104480000C0680E878008041013070BC704700BFA6
:1044900070B491E87800B2E802105B1A74EB0C0477
:1044A000B2E802108D4176EB0C0680E8780080417E
:1044B000404270BC704700BF2DE9F00791E8F80753
:1044C000B2E802105B1854EB0C04B2E802104D4144
:1044D00056EB0C06B2E802104F4158EB0C08B2E85C
:1044E000021059EB01095AEB0C0A80E8F8078041E9
:1044F0000130BDE8F00770472DE9F00791E8F807B3
:10450000B2E802105B1A74EB0C04B2E802108D41A1
:1045100076EB0C06B2E802108F4178EB0C08B2E89B
:10452000021079EB01097AEB0C0A80E8F807804168
:104530004042BDE8F00770472DE9F007524290E88D
:104540007800B1E880071740DB1918EA020854EB3D
:10455000080419EA020955EB09051AEA020A56EBA2
:104560000A0678C090E87800B1E8800717407B41E0
:1045700018EA020854EB080419EA020955EB090588
:104580001AEA020A56EB0A0678C080410130BDE8FB
:10459000F00770472DE9F007524290E87800B1E843
:1045A00080071740DB1B18EA020874EB080419EABD
:1045B000020975EB09051AEA020A76EB0A0678C0C9
:1045C00090E87800B1E880071740BB4118EA02087C
:1045D00074EB080419EA020975EB09051AEA020AE4
:1045E00076EB0A0678C080414042BDE8F00770478C
:1045F00090E8300091E8C000A31B1340E41AF618BD
:10460000EB1B1340ED1AFF1830C0C0C1704700BF4C
:10461000F0B55242FFF7ECFFFFF7EAFFFFF7E8FFC4
:10462000FFF7E6FFF0BD00BF2DE9F0073AC91668B5
:10463000A1FB069A4FF0000CE3FB06AC4FF000071D
:10464000E4FB06C74FF00008E5FB067840F8049B42
:1046500056684FF00009E1FB06A9E3FB66C9E4FBDD
:104660006679E5FB668940F804AB96684FF0000A6E
:10467000E1FB06CAE3FB667AE4FB668AE5FB669A21
:1046800040F804CBD6684FF0000CE1FB067CE3FB5E
:10469000668CE4FB669CE5FB66AC80E88017BDE8B1
:1046A000F00770470A4600BF2DE9F04F92E8F00F7F
:1046B0002DE9F30F87B01EC90998A1FB00784FF0D0
:1046C0000009E2FB00894FF0000AE3FB009A4FF07B
:1046D000000BE4FB00AB0D984FF0000CE1FB00BCBD
:1046E0004FF0000EE2FB00CE4FF00005E3FB00E5CB
:1046F0004FF00006E4FB005600970A984FF00007C1
:10470000E1FB0087E2FB6097E3FB60A7E4FB60B797
:104710000E98E1FB60C7E2FB60E7E3FB6057E4FB58
:104720006067CDF804800B984FF00008E1FB00981B
:10473000E2FB60A8E3FB60B8E4FB60C80F98E1FB14
:1047400060E8E2FB6058E3FB6068E4FB6078CDF86A
:1047500008900C984FF00009E1FB00A9E2FB60B95A
:10476000E3FB60C9E4FB60E91098E1FB6059E2FB00
:104770006069E3FB6079E4FB6089CDF80CA00899DF
:1047800001F110011EC909984FF0000AE1FB00BABF
:10479000E2FB60CAE3FB60EAE4FB605A0D98E1FBD0
:1047A000606AE2FB607AE3FB608AE4FB609ACDF822
:1047B00010B00A984FF0000BE1FB00CBE2FB60EB7E
:1047C000E3FB605BE4FB606B0E98E1FB607BE2FB6C
:1047D000608BE3FB609BE4FB60ABCDF814C00B98EF
:1047E0004FF0000CE1FB00ECE2FB605CE3FB606C73
:1047F000E4FB607C0F98E1FB608CE2FB609CE3FBD8
:1048000060ACE4FB60BCCDF818E00C984FF0000EF3
:10481000E1FB005EE2FB606EE3FB607EE4FB608E2A
:104820001098E1FB609EE2FB60AEE3FB60BEE4FB40
:1048300060CE079800F11C0181E8E05FBDE8F80355
:1048400080E8F8030AB0BDE8F08F00BF30B44FF045
:10485000000310F8014B11F8015B013A84EA0504EA
:1048600043EA0403F5D1A3F101034FEAD37030BC4E
:10487000704700BF4FF0000310F8012B013943EAE5
:104880000203F9D1A3F101034FEAD370704700BFCF
:1048900011F8013B00F8013B013AF9D1704700BF24
:1048A000002200F8012B0139FBD170472DE9F007F8
:1048B00091E8F807B2E802105B1854EB0C04B2E878
:1048C00002104D4156EB0C06B2E802104F4158EB76
:1048D0000C08B2E8021059EB01095AEB0C0A8941A5
:1048E000B3F1FF3374F1FF3475F1FF3576F1000653
:1048F00077F1000778F1000879F101097AF1FF3AC0
:1049000051F100015B184C414D4156F1000657F141
:10491000000758F1000859EBD1795AEB010A80E8F9
:10492000F807BDE8F00770472DE9F00791E8F807B0
:10493000B2E802105B1A74EB0C04B2E802108D416D
:1049400076EB0C06B2E802108F4178EB0C08B2E867
:10495000021079EB01097AEB0C0A89415B184C4192
:104960004D4156F1000657F1000758F1000859EB88
:10497000D1795AEB010A80E8F807BDE8F0077047E3
:104980000A4600BF2DE9F04F92E8F00F2DE9F30F32
:1049900087B01EC90998A1FB00784FF00009E2FB1F
:1049A00000894FF0000AE3FB009A4FF0000BE4FB94
:1049B00000AB0D984FF0000CE1FB00BC4FF0000E77
:1049C000E2FB00CE4FF00005E3FB00E54FF00006F0
:1049D000E4FB005600970A984FF00007E1FB0087C0
:1049E000E2FB6097E3FB60A7E4FB60B70E98E1FB96
:1049F00060C7E2FB60E7E3FB6057E4FB6067CDF86C
:104A000004800B984FF00008E1FB0098E2FB60A8DF
:104A1000E3FB60B8E4FB60C80F98E1FB60E8E2FBF1
:104A20006058E3FB6068E4FB6078CDF808900C9870
:104A30004FF00009E1FB00A9E2FB60B9E3FB60C9AC
:104A4000E4FB60E91098E1FB6059E2FB6069E3FB7D
:104A50006079E4FB6089CDF80CA0089901F11001A0
:104A60001EC909984FF0000AE1FB00BAE2FB60CAD8
:104A7000E3FB60EAE4FB605A0D98E1FB606AE2FB4D
:104A8000607AE3FB608AE4FB609ACDF810B00A9884
:104A90004FF0000BE1FB00CBE2FB60EBE3FB605B64
:104AA000E4FB606B0E98E1FB607BE2FB608BE3FB59
:104AB000609BE4FB60ABCDF814C00B984FF0000C8A
:104AC000E1FB00ECE2FB605CE3FB606CE4FB607C20
:104AD0000F98E1FB608CE2FB609CE3FB60ACE4FBC5
:104AE00060BCCDF818E00C984FF0000EE1FB005EC2
:104AF000E2FB606EE3FB607EE4FB608E1098E1FBFE
:104B0000609EE2FB60AEE3FB60BEE4FB60CEDDE9ED
:104B10000423069C12EB0A0253EB0B0354EB0C0428
:104B200055EB0E05002040F1000012EB0B0253EB99
:104B30000C0354EB0E0455EB0E0546410020474193
:104B400058EB000859EB0A0940F10000B2EB0E02E5
:104B500073F1000374F1000475EB0A0576EB0B06A4
:104B600077EB0C0778EB0A0879EB0C0960F1000091
:104B7000B5EB0B0576EB0C0677EB0E0778EB0B0825
:104B800079EB0E0960F100006FEAE07AB2EB0A02FD
:104B900073EB0A0374EB0A0475F1000576F1000665
:104BA00077F1000778EBDA7879EB0A0960F1000019
:104BB0004FEAE07A12EB0A0253EB0A0354EB0A04C1
:104BC00055F1000556F1000657F1000758EBDA7869
:104BD00059EB0A0940F100004FEAE07A12EB0A02B1
:104BE00053EB0A0354EB0A0455F1000556F1000695
:104BF00057F1000758EBDA7859EB0A09DDE900AB09
:104C0000DDE902011AEB060A5BEB070B50EB08002B
:104C100051EB09015FF0000C4CF1000C1AEB070A94
:104C20005BEB080B50EB090051EB090152EB0C0256
:104C30005FF0000C53EB0C0354EB0C0475414CF18A
:104C4000000CBAEB090A7BF1000B70F10000B141D6
:104C5000BA4173EB0803B44175EB08056CF1000C25
:104C6000C91B72EB080273EB0903BC4175EB090524
:104C70006CF1000C6FEAEC76BAEB060A7BEB060BE4
:104C8000B04171F1000172F1000273F1000374EBA5
:104C9000D674B5416CF1000C4FEAEC761AEB060ABB
:104CA0005BEB060B704151F1000152F1000253F130
:104CB000000354EBD67475414CF1000C4FEAEC76CE
:104CC0001AEB060A5BEB060B704151F1000152F141
:104CD000000253F1000354EBD6747541079FA7E817
:104CE000000C87E83F0011B0BDE8F08F2DE9F04FD0
:104CF00092E8F00F4FF0020E88EA781C8CEAF84C2C
:104D00000BEBBC1C8AEA090303EA080383EA0A03E3
:104D10009C4450F8043B9C4451F8043B9C44674439
:104D200044EA050B0BEA060B04EA05034BEA030B06
:104D3000E34484EAF42383EA34530BEBB30B87EAAE
:104D4000771C8CEAF74C0AEBBC1C89EA080303EADF
:104D5000070383EA09039C4450F8043B9C4451F840
:104D6000043B9C4466444BEA040A0AEA050A0BEA3F
:104D700004034AEA030AE2448BEAFB2383EA3B5337
:104D80000AEBB30A86EA761C8CEAF64C09EBBC1CEB
:104D900088EA070303EA060383EA08039C4450F801
:104DA000043B9C4451F8043B9C4465444AEA0B098B
:104DB00009EA04090AEA0B0349EA0309E1448AEA19
:104DC000FA2383EA3A5309EBB30985EA751C8CEAA6
:104DD000F54C08EBBC1C87EA060303EA050383EAEB
:104DE00007039C4450F8043B9C4451F8043B9C440A
:104DF000644449EA0A0808EA0B0809EA0A0348EA8F
:104E00000308E04489EAF92383EA395308EBB3083D
:104E100084EA741C8CEAF44C07EBBC1C86EA05039C
:104E200003EA040383EA06039C4450F8043B9C44D1
:104E300051F8043B9C44E34448EA090707EA0A079F
:104E400008EA090347EA0307674488EAF82383EA84
:104E5000385307EBB3078BEA7B1C8CEAFB4C06EB61
:104E6000BC1C85EA040303EA0B0383EA05039C44A4
:104E700050F8043B9C4451F8043B9C44E24447EA0C
:104E8000080606EA090607EA080346EA0306664436
:104E900087EAF72383EA375306EBB3068AEA7A1CDC
:104EA0008CEAFA4C05EBBC1C84EA0B0303EA0A0308
:104EB00083EA04039C4450F8043B9C4451F8043BAF
:104EC0009C44E14446EA070505EA080506EA0703AB
:104ED00045EA0305654486EAF62383EA365305EB83
:104EE000B30589EA791C8CEAF94C04EBBC1C8BEA0B
:104EF0000A0303EA090383EA0B039C4450F8043BCA
:104F00009C4451F8043B9C44E04445EA060404EA0E
:104F1000070405EA060344EA0304644485EAF5232A
:104F200083EA355304EBB304BEF1010E7FF4E4AE23
:104F300082E8F00FBDE8F08F2DE9F04F90E8FC0318
:104F4000D0E9091CD0E90EAB0A444FEA7A4E8EEA4A
:104F5000FA4E8EEA9A2E72444FEAF31E8EEAB34E50
:104F60008EEAD30E724463444FEA7B4E8EEAFB4EC8
:104F70008EEA9B2E73444FEAF41E8EEAB44E8EEAFC
:104F8000D40E7344D0E90B1A0C444FEA724E8EEAE9
:104F9000F24E8EEA922E74444FEAF51E8EEAB54E1A
:104FA0008EEAD50E744455444FEA734E8EEAF34EA2
:104FB0008EEA932E75444FEAF61E8EEAB64E8EEABE
:104FC000D60E7544D0E90DEA76444FEA744E8EEA67
:104FD000F44E8EEA942E76444FEAF71E8EEAB74ED0
:104FE0008EEAD70E764457444FEA754E8EEAF54E58
:104FF0008EEA952E77444FEAF81E8EEAB84E8EEA76
:10500000D80E7744D8444FEA764E8EEAF64E8EEAB2
:10501000962EF0444FEAF91E8EEAB94E8EEAD90E6A
:10502000F044D0E908AB91444FEA774E8EEAF74E50
:105030008EEA972EF1444FEAFA1E8EEABA4E8EEAB5
:10504000DA0EF1449A444FEA784E8EEAF84E8EEA30
:10505000982EF2444FEAFB1E8EEABB4E8EEADB0E20
:10506000F244A3444FEA794E8EEAF94E8EEA992E25
:10507000F3444FEAFC1E8EEABC4E8EEADC0EF3448B
:10508000AC444FEA7A4E8EEAFA4E8EEA9A2EF444F7
:105090004FEAF11E8EEAB14E8EEAD10EF444A0E83A
:1050A000FC1FD0E9014531444FEA7B4E8EEAFB4EAE
:1050B0008EEA9B2E71444FEAF41E8EEAB44E8EEABD
:1050C000D40E71443C444FEA7C4E8EEAFC4E8EEA8C
:1050D0009C2E74444FEAF51E8EEAB54E8EEAD50E2C
:1050E0007444D0E9036745444FEA714E8EEAF14EAD
:1050F0008EEA912E75444FEAF61E8EEAB64E8EEA7F
:10510000D60E75444E444FEA744E8EEAF44E8EEA43
:10511000942E76444FEAF71E8EEAB74E8EEAD70EEB
:10512000764457444FEA754E8EEAF54E8EEA952E38
:1051300077444FEAF21E8EEAB24E8EEAD20E7744E0
:10514000F2C0BDE8F08F00BF80B4ADF6140D00AF23
:105150000023C7F80C380123C7F8083826E007F504
:105160008063D7F80C28D7F8081843F822103B467C
:10517000D7F80828D7F80C1843F82210D7F80838C1
:105180005B00D7F8082802F08002002A01D01B2219
:1051900000E000225A40D7F808385340DBB2C7F885
:1051A0000838D7F80C380133C7F80C38D7F80C3862
:1051B000FF2BD4DD0023C7F80C380123C7F80838CB
:1051C0001BE0D7F80828D949D7F80C3841F8232034
:1051D000D7F808385B00D7F8082802F08002002AC8
:1051E00001D01B2200E000225340DBB2C7F8083890
:1051F000D7F80C380133C7F80C38D7F80C38092B1E
:10520000DFDDCB4B63221A70CA4B002283F8632088
:105210000123C7F80C386DE03B46D7F80C2853F84B
:105220002230C3F1FF0207F5806353F82230C7F83C
:105230000838D7F80838C7F80438D7F804385A00BF
:10524000D7F80438DB111343DBB2C7F80438D7F8BA
:105250000828D7F804385340C7F80838D7F8043876
:105260005A00D7F80438DB111343DBB2C7F804380F
:10527000D7F80828D7F804385340C7F80838D7F8C3
:1052800004385A00D7F80438DB111343DBB2C7F8EF
:105290000438D7F80828D7F804385340C7F8083836
:1052A000D7F804385A00D7F80438DB111343DBB2BF
:1052B000C7F80438D7F8043883F06303D7F8082810
:1052C0005340C7F80838D7F80838D9B2984AD7F801
:1052D0000C3813440A461A70D7F80C38D9B2954ADC
:1052E000D7F8083813440A461A70D7F80C38013337
:1052F000C7F80C38D7F80C38FF2B8DDD0023C7F822
:105300000C3806E18A4AD7F80C3813441B78C7F8E2
:105310000838D7F808385B00D7F8082802F0800270
:10532000002A01D01B2200E000225340DBB2C7F864
:105330000438D7F80428D7F808385340DBB2C7F848
:105340000038D7F808381A02D7F804385A40D7F886
:1053500008381B045A40D7F800381B065A407649D3
:10536000D7F80C3841F82320734AD7F80C3852F894
:1053700023304FEA33627149D7F80C3841F82320C3
:105380006E4AD7F80C3852F823304FEA33626C4932
:10539000D7F80C3841F82320694AD7F80C3852F86E
:1053A00023304FEA33626749D7F80C3841F823209D
:1053B000604AD7F80C3813441B78C7F80838D7F878
:1053C0000838002B18D03B469A6B3B46D7F8081894
:1053D00053F821301A445C4B83FB02131344D91158
:1053E000D317C91A0B461B025B1AD11A07F5806343
:1053F00053F82130184600E00020D7F80838002B79
:1054000018D03B465A6A3B46D7F8081853F8213063
:105410001A444D4B83FB02131344D911D317C91AF5
:105420000B461B025B1AD11A07F5806353F8213033
:105430001B0200E000235840D7F80838002B18D092
:105440003B465A6B3B46D7F8081853F821301A44AC
:105450003D4B83FB02131344D911D317C91A0B46D2
:105460001B025B1AD11A07F5806353F821301B0425
:1054700000E000235840D7F80838002B18D03B46EE
:10548000DA6A3B46D7F8081853F821301A442E4BF5
:1054900083FB02131344D911D317C91A0B461B02FD
:1054A0005B1AD11A07F5806353F821301B0600E020
:1054B000002383EA00022549D7F80C3841F823205D
:1054C000224AD7F80C3852F823304FEA3362204989
:1054D000D7F80C3841F823201D4AD7F80C3852F879
:1054E00023304FEA33621B49D7F80C3841F82320A8
:1054F000184AD7F80C3852F823304FEA336216496D
:10550000D7F80C3841F82320D7F80C380133C7F806
:105510000C38D7F80C38FF2B7FF7F4AE00BF00BF74
:1055200007F61407BD4680BC704700BF1C2D002045
:105530001C0B00201C1C00201C0C00201C10002038
:105540001C1400201C180020818080801C1D00205D
:105550001C2100201C2500201C29002080B582B0C1
:1055600000AF78604FF48C720021786843F075F9D1
:1055700000BF0837BD4680BD80B582B000AF7860FF
:105580007B68002B05D04FF48C71786814F0CEFB4B
:1055900000E000BF0837BD4680BD80B584B000AFD5
:1055A000F860B9607A607A68B968F86838F08AFBA0
:1055B00000BF1037BD4680BD80B584B000AFF86035
:1055C000B9607A607A68B968F86838F087FB00BF1C
:1055D0001037BD4680BD80B584B000AFF860B960BB
:1055E0007A603B60BB68012B06D13A687968F8683D
:1055F00038F068FB034605E03A687968F86838F0E7
:105600006DFB034618461037BD4680BD80B489B097
:1056100000AFF860B9607A608723FB751B23BB7508
:105620000023BB777B68102B02D1FB7DFB7707E063
:105630007B68082B02D1BB7DFB7701E01E4B35E078
:105640007B68013BBB6117E0BB69BA6813441B78F8
:105650005B005AB297F91E30134359B2BB69FA681E
:105660001344CAB21A70BB69BA6813441B78DB09C9
:10567000BB77BB69013BBB61BB69002BE4DABB684C
:105680001B785BB2DB115BB27B757B68013BFA6810
:1056900013441978FA7F7B7D1340DAB27B68013BB3
:1056A000F86803444A40D2B21A70002318462437DF
:1056B000BD4680BC704700BF009FFFFF80B58EB025
:1056C00002AFF860B9607A606FF06D03FB6207F1BA
:1056D00018031021184614F029FBFB681B685B694E
:1056E000BB6207F1180207F1180107F114030093D8
:1056F0001346BA6AF86813F0A9FDF862FB6A002B3A
:1057000013D107F11803BA6A1946B868FFF77EFF8C
:10571000F862FB6A002B0AD1BA6AB9687868FFF7A9
:1057200075FFF862FB6A002B02E000BF00E000BFDB
:1057300007F118031021184614F0F8FAFB6A18460E
:105740003037BD4680BD80B487B000AFF860B96027
:105750007A603B6000237B6110E0BA687B69134488
:1057600019787A687B6913441A78F8687B6903446E
:105770004A40D2B21A707B6901337B617A693B6817
:105780009A42EAD300BF00BF1C37BD4680BC7047B9
:1057900080B487B000AFF860B9607A603B600023E6
:1057A0007B611EE07A693B689A4208D27A687B691D
:1057B0001A44F9687B690B4412781A700EE07A6912
:1057C0003B689A4205D1FA687B69134480221A70BB
:1057D00004E0FA687B69134400221A707B69013384
:1057E0007B617A69BB689A42DCD300BF00BF1C377B
:1057F000BD4680BC704780B588B000AFF860B96026
:105800007A60FB68002B06D0FB681B68002B02D077
:10581000BB68002B01D11A4B2DE07A680123B968CF
:10582000F86813F0D1FCF861FB69002B01D0FB692B
:1058300021E0FB681B681B78FB76FB7E042B02DCF7
:10584000022B04DA01E0242B01D00D4B13E000BF42
:105850002421012014F054FA78617B69002B01D1D6
:10586000084B08E0FB687A699A637B691021184647
:1058700014F05CFA002318462037BD4680BD00BFF7
:10588000009FFFFF809EFFFF80B58EB002AFF860E3
:10589000B9607A600023FB62FB68002B0AD0FB68CA
:1058A0001B68002B06D0BB68002B03D0FB689B6BEA
:1058B000002B01D14A4B8EE0FB689B6B7B62FB683F
:1058C0001B685B693B62FB689B6BFB617B6A1B6AC5
:1058D000002B39D07B6A1B6A3A6AD31A7A689A42DB
:1058E00032D97B6A1B6A10337A6AD0187B6A1B6ACA
:1058F0003A6AD31A1A46B96842F074FF7B6A03F118
:1059000010013B6AFA69F869FFF71DFF07F11403FC
:105910000093FB693A6AF969F86813F097FCF8623A
:10592000FB6A002B51D17B6A1B6A3A6AD31ABA68A8
:105930001344BB607B6A1A6A3B6AD31A7A681344C1
:105940007B607B6A00221A627A683B6A13445A1EA3
:105950003B6AB2FBF3F3BB610123BB621DE03B6A10
:10596000FA69B968F869FFF7EEFE07F114030093CE
:10597000FB693A6AF969F86813F068FCF862FB6A37
:10598000002B24D17A683B6AD31A7B60BA683B6AE1
:105990001344BB60BB6A0133BB62BA6ABB699A42FB
:1059A000DDD37B68002B14D07B6A1B6A10337A6AC4
:1059B00013447A68B968184642F014FF7B6A1A6A81
:1059C0007B681A447B6A1A6204E000BF02E000BFF1
:1059D00000E000BFFB6A18463037BD4680BD00BFFF
:1059E000009FFFFF80B596B002AF786039606FF01E
:1059F0006D03FB647B68002B0AD07B681B68002B5F
:105A000006D07B689B6B002B02D03B68002B01D13A
:105A10003C4B73E07B689B6BBB647B681B685B697A
:105A20007B64BB6C3B6407F12C031021184614F017
:105A30007DF907F11C031021184614F077F907F1DE
:105A40001C0207F12C0319467868FFF737FEBB6C80
:105A50001033FB63BB6C1B6A7A6C9A4211D9BB6C26
:105A60001B6A07F10C00FA6B796CFFF791FE07F1E6
:105A70001C0207F10C0107F10C007B6CFFF763FEC1
:105A800007E007F12C0207F10C007B6CF96BFFF7C4
:105A90005AFE07F10C017B6C3A6C386CFFF753FE31
:105AA00007F1080300933B6C7A6C396C786813F04B
:105AB000CDFBF864FB6C002B05D17A6C396C38682F
:105AC00042F090FE00E000BF07F12C0310211846C1
:105AD00014F02CF907F11C031021184614F026F9D4
