:10000000003E012039B600007D65040075B6000091
:1000100075B6000075B6000075B60000000000005F
:1000200000000000000000000000000065B30000B8
:1000300075B60000000000000DB300001DAE00000A
:10004000F9B500009D7F0400F9B50000F9B5000086
:10005000F9B50000F9B50000F9B50000F9B50000E8
:10006000657F0400F9B50000F9B50000837F040046
:10007000F9B50000F9B50000F9B50000F9B50000C8
:10008000F9B50000F9B50000F9B50000F9B50000B8
:10009000F9B50000F9B50000F9B50000F9B50000A8
:1000A000F9B50000F9B50000F9B50000F9B5000098
:1000B000F9B50000F9B50000F9B50000F9B5000088
:1000C000F9B50000F9B50000F9B50000F9B5000078
:1000D000F9B50000F9B50000F9B50000F9B5000068
:1000E000F9B50000F9B50000F9B50000F9B5000058
:1000F000F9B50000F9B50000F9B50000F9B5000048
:1001000001F0FF01102A2BDB10F0070F08D010F8C8
:10011000013B013A8B422DD010F0070F42B3F6D1CC
:10012000F0B441EA012141EA014122F007047FF0E5
:1001300000070023F0E80256083C85EA010586EA3C
:10014000010685FA47F5A3FA87F586FA47F6A5FA78
:1001500087F68EB9EED1F0BC01F0FF0102F0070284
:1001600032B110F8013B013A83EA010313B1F8D12F
:100170000020704701387047002D06BF3546033810
:10018000073815F0010F07D1013015F4807F02BF49
:10019000013015F4C03F0130F0BC0138704700BF9A
:1001A0007BB972B90029BEBF00204FF0004106E0C4
:1001B00008BF00281CBF6FF000414FF0FF3000F077
:1001C000B7B9ADF1080C6DE904CE002909DB002BAD
:1001D0001ADB00F04DF8DDF804E0DDE9022304B09D
:1001E0007047404261EB4101002B1BDB00F040F8FF
:1001F000DDF804E0DDE9022304B0404261EB410197
:10020000524263EB43037047524263EB430300F0F7
:100210002FF8DDF804E0DDE9022304B0404261EB91
:1002200041017047524263EB430300F021F8DDF8CF
:1002300004E0DDE9022304B0524263EB430370475C
:1002400053B94AB9002908BF00281CBF4FF0FF313D
:100250004FF0FF3000F06CB9ADF1080C6DE904CE41
:1002600000F006F8DDF804E0DDE9022304B0704791
:100270002DE9F047089E0D4604468E46002B40F0BF
:1002800082808A42174646D9B2FA82F24AB1C2F156
:10029000200105FA02F320FA01F1974041EA030E2A
:1002A00094404FEA1748230CBEFBF8FCB9B208FB98
:1002B0001CEE43EA0E430CFB01F098420AD9FB18EE
:1002C0000CF1FF3580F01681984240F21381ACF1B9
:1002D000020C3B441B1AA4B2B3FBF8F008FB10332A
:1002E00044EA034400FB01F1A14209D93C1900F1A1
:1002F000FF3380F00181A14240F2FE8002383C448D
:10030000641A40EA0C4000211EB1D4400023C6E923
:100310000043BDE8F08702B9FFDEB2FA82F2002A9C
:100320004FD1CB1B4FEA174E1FFA87F80121B3FBC1
:10033000FEFC250C0EFB1C3345EA034508FB0CF3C1
:10034000AB4207D97D190CF1FF3002D2AB4200F26B
:10035000E7808446ED1AA3B2B5FBFEF00EFB105504
:1003600043EA054408FB00F8A04507D93C1900F111
:10037000FF3302D2A04500F2D7801846A4EB080450
:1003800040EA0C40C0E78B4208D9002E00F0AF8055
:100390000021C6E900050846BDE8F087B3FA83F1FD
:1003A00000294BD1AB4202D3824200F2B780841ABB
:1003B00065EB030301209E46002EAAD0C6E9004E3D
:1003C000A7E7C2F1200C01FA02F3974020FA0CF0E3
:1003D0004FEA174E21FA0CFC1843BCFBFEF1050C4A
:1003E0000EFB11CC1FFA87F845EA0C4501FB08F318
:1003F000AB4204FA02F409D97D1901F1FF3C80F007
:100400008B80AB4240F2888002393D44EB1A85B2C2
:10041000B3FBFEF00EFB103345EA034500FB08F387
:10042000AB4207D97D1900F1FF3C71D2AB426FD9C5
:1004300002383D44EB1A40EA014178E7C1F1200C53
:100440008B4022FA0CF71F4320FA0CF405FA01F353
:100450004FEA174E25FA0CF51C43230CB5FBFEF9A9
:100460001FFA87F80EFB195543EA054509FB08FA00
:10047000AA4502FA01F200FA01F308D97D1909F13F
:10048000FF3047D2AA4545D9A9F102093D44A5EB61
:100490000A05A4B2B5FBFEF00EFB105544EA054474
:1004A00000FB08F8A04507D93C1900F1FF352DD213
:1004B000A0452BD902383C4440EA0940A4EB08048B
:1004C000A0FB02894C45C6464D4619D316D05EB1F5
:1004D000B3EB0E0264EB050404FA0CFCCA404CEAD0
:1004E0000202CC40C6E900240021BDE8F087314675
:1004F00030460EE7AC46EDE6184601E74345E6D246
:10050000B8EB020E69EB07050138E0E72846D3E7B0
:1005100060468FE78146BAE7614677E708464BE7D2
:10052000ACF1020C3D4415E702383C4426E700BF1D
:10053000704700BFF8B515460A4A1C4656682EB1EA
:1005400001B02A46B446BDE8F040604700208DF86F
:100550000000684604F0B2FC9DF80000281A2070E4
:100560000020F8BD000000202DE9F0410D460446B2
:10057000022604F03DFD006820B140F23F1126A0A4
:1005800002F0CCFF01273DB12878C0B1012805D089
:10059000022812D0032815D027770EE06868C828F3
:1005A00003D3042101F01CF908B1002607E020461E
:1005B000696804F086FC012601E001F045FE304642
:1005C000BDE8F08120780028F7D1686800F052F982
:1005D0000028E1D069680878C0B1A078052804D067
:1005E0004FF4B7710CA002F099FF2046696804F03F
:1005F00088FCE07804F1080104F061FC0028DCD1FB
:100600004FF4B87104A002F089FFD6E7204604F049
:1006100060FC6770D1E700006D70736C5F74696D8A
:1006200065736C6F742E63002DE9F0410E4605462C
:1006300000F010FA8046FF2804D14FF4C57189A05C
:1006400002F06CFF404600F0F9F9040004D140F2DA
:100650008D1184A002F062FFE078A84204D04FF42C
:10066000C97180A002F05AFF00250227082E78D217
:10067000DFE806F0040F2F2F6378838FA07804281B
:1006800006D00328FCD04FF4CB7176A002F046FFD1
:10069000CEE0A078042806D0032804D04FF4CD7112
:1006A00070A002F03BFF0520A0702577207800287D
:1006B0006BD10021204604F004FC207A012804D0EC
:1006C0006069A0610021626841E0E07801F022FAEF
:1006D000F7E7A078042806D0032804D04FF4DC7193
:1006E00060A002F01BFF207820B12146404600F0B8
:1006F000EFF89BE0A078042812D00120A070626877
:10070000022E0FD00621404690470028F1D00078F5
:100710000028EED04FF4E97152A002F0FFFE85E010
:10072000A770ECE7052140469047002863D0007889
:10073000002860D040F2CD1181E0A078052804D0D7
:1007400040F2D91147A002F0E9FE6268022140465A
:10075000904701462046FFF707FF05464FF406770E
:1007600062E057E0A078052804D040F2DF113DA0F8
:1007700002F0D4FE01216268E9E7A078052804D0E0
:1007800040F2E51137A002F0C9FEBDE8F04101F0EA
:100790005BBDA078052808D0617809B1032804D092
:1007A0004FF4F5712FA002F0B9FE207828B1214650
:1007B0004046BDE8F04100F08BB8207F68B1257756
:1007C000A7706268082140469047002813D000783F
:1007D000002810D04FF4FB7131E0607868B1E07808
:1007E00004F1080104F06BFB20B94FF4FD711DA06A
:1007F00002F094FE6570BDE8F081A7706268072181
:10080000404690470028F6D000780028F3D040F208
:10081000022114E040F207217EE7C5B1012D13D07B
:10082000394610A002F07AFE022DF6D1002EE2D158
:1008300004F0DBFB00680028DDD040F22221BDE897
:10084000F04108A002F06ABE0421626801E062681B
:1008500003214046904701462046FFF785FE0546A6
:10086000E2E700006D70736C5F74696D65736C6FA7
:10087000742E6300002819D003781349134A13B16A
:10088000012B0ED011E00379012B00D06BB9437915
:100890000BB1012B09D18368643B8B4205D2C06840
:1008A0000EE00379012B02D00BB100207047437991
:1008B0000BB1012BF9D1C368643B8B42F5D2806840
:1008C0009042F2D8012070473D860100FF1FA1072A
:1008D00070B505460C46C87801F072FC18B9C921FC
:1008E0000AA002F01BFE204604F027FB62680921E3
:1008F00028469047002808D00078002805D0BDE899
:100900007040CD2101A002F009BE70BD6D70736C06
:100910005F74696D65736C6F742E63002DE9F0412F
:100920000D4600F08BF8040007D0A0786FF0220687
:10093000012806D0022810D103E06FF00100BDE8C5
:10094000F0816FF0150755B12846FFF793FF30B1DE
:10095000287830B1A078022808D03046EFE7384632
:10096000EDE72946204604F0B4FA03E02946204684
:1009700004F0C7FAE07804F1080104F0A0FA20B905
:100980004FF4277102A002F0C9FD0020D7E7000054
:100990006D70736C5F74696D65736C6F742E63003A
:1009A0002DE9F0410E46050004D000F041F807465D
:1009B00000240AE06FF01500BDE8F081204600F049
:1009C0003DF8807838B1641CE4B2BC42F6D300BF75
:1009D0006FF00B00F0E72746FF2CF9D0204600F01F
:1009E0002DF8044604F0A9FA074801F00BFCE0706A
:1009F000202805D001206560A07037700020DBE75B
:100A00006FF02200D8E700002906000010B5820729
:100A100002D06FF00D0010BD044A1170506018B183
:100A20004A01002104F0F1FB002010BD0800002065
:100A300001480078704700000800002004490A7847
:100A4000904201D300207047496801EB4010704785
:100A500008000020094910B503464A6800200978BB
:100A600007E000BF02EB4014E4789C4204D0401C35
:100A7000C0B28842F6D3FF2010BD0000080000205D
:100A80002DE9F8430446C91C1E461546104604F1DC
:100A900008084942089F01F005F84246214602F045
:100AA000DBF9206820F07F402060A819114EC51C9A
:100AB000CFB1012F04D040F297610F4802F02EFD14
:100AC0003068007828446A46211D02F0C5F99DF976
:100AD000000000286068C4BF401C606020F07F40B8
:100AE0006060BDE8F883306800787A2898BF7A2083
:100AF0002844E8E7A00B0020FC1A00002DE9F04193
:100B00001F4614460E460546202A04D14FF42A718A
:100B10001B4802F003FD1B481B4900EB871202EB48
:100B2000440001EB8703202E24D002EB46014078DD
:100B300091F801C0487020216046202C06D0014663
:100B400002EB4100A14205704078F8D193F82640AD
:100B5000202C1ABF02EB440484F801C083F825C09E
:100B60004FF0200C02EB410282F801C083F82610FE
:100B7000BDE8F08193F824C0407883F82400DAE7D8
:100B8000FC1A0000200B0020A00B00202DE9F04FE4
:100B900087B0044600200290A848884600EB8800F1
:100BA000039090F824502020A54FEA460DF1040947
:100BB0008DF80000202D1CBFA24800EB881B38D008
:100BC00005EB850007EB8000061D80682168081A88
:100BD0000002C11700EB116000122AD4608908B32B
:100BE0007089F8B9306804F006FA718996F908201E
:100BF0001144C91C00F056FF05AA04A902F02CF903
:100C00009DF914000028CCBF0120002000F1330220
:100C100004992068401A0002C11700EB116000120D
:100C2000904206DB0BEB45008AF800504578202DFA
:100C3000C6D19AF8000089F80000202D1CBF814918
:100C400001EB881B00F0F68005EB850007EB800ABE
:100C50006168DAF804000AF10406401A0002C117BC
:100C600000EB1160001227D47089002800F0E280A8
:100C70006089002840F0DE80206804F0BCF96189BA
:100C800094F908201144C91C00F00CFF05AA04A91E
:100C900002F0E2F89DF914000028CCBF01200020EA
:100CA00000F1330104983268101A0002C21700EBF9
:100CB0001260001288427BDA89F800509AF810001E
:100CC000217B884205D90BEB45004578202DBBD10F
:100CD000B0E09DF80400D4E9002100EB800007EBB0
:100CE0008000891A806820F07F42084420F07F400D
:100CF000C4E9002001200290504890F82F0018B15C
:100D000007B00020BDE8F08F0398EA460DF1040912
:100D100090F8245020208DF80000202D1CBF494859
:100D200000EB881B39D000BF05EB850007EB800086
:100D3000061D80682168081A0002C11700EB1160C7
:100D400000122AD4608908B37089F8B9306804F0B9
:100D500052F9718996F908201144C91C00F0A2FECD
:100D600005AA04A902F078F89DF914000028CCBF68
:100D70000120002000F13301049A2068801A00024B
:100D8000C21700EB12600012884206DB0BEB450035
:100D90008AF800504578202DC6D19AF8000089F8CD
:100DA0000000202D1CBF274901EB881B42D000E02A
:100DB00040E005EB850007EB800A6068DAF8041074
:100DC0000AF10406081A0002C11700EB11600012B4
:100DD00023D4708970B3608960BB206804F00BF97C
:100DE000618994F908201144C91C00F05BFE05AA32
:100DF00004A902F031F89DF914000028CCBF0120AD
:100E0000002000F1330104983268101A0002C21762
:100E100000EB1260001288420CDA89F800509AF850
:100E20001000217B88427FF654AF0BEB45004578DC
:100E3000202DBCD1029807B0BDE8F08FA00B002098
:100E4000A0080020200B00202DE9F04F04464E485A
:100E50000F4600EB870083B090F824502020DFF885
:100E60002C81994692461070202D1CBF484800EBFB
:100E7000871B38D005EB850008EB8000061D8068D5
:100E80002168081A0002C11700EB116000122AD471
:100E9000608908B37089F8B9306804F0ACF87189DA
:100EA00096F908201144C91C00F0FCFD01AA69460E
:100EB00001F0D2FF9DF904000028CCBF01200020E2
:100EC00000F1330100982268101A0002C21700EBEB
:100ED00012600012884206DB0BEB45008AF80050D6
:100EE0004578202DC6D19AF8000089F80000202D01
:100EF0001CBF274800EB871A41D000BF05EB8500D7
:100F000008EB8007606879683E1D081A0002C11767
:100F100000EB1160001223D4708980B3608970BB2C
:100F2000206804F068F8618994F908201144C91C0C
:100F300000F0B8FD01AA694601F08EFF9DF904009A
:100F40000028CCBF0120002000F13301009A306856
:100F5000801A0002C21700EB1260001288420EDAFB
:100F600089F80050387C217B884203D803B00020E8
:100F7000BDE8F08F0AEB45004578202DBED103B0C7
:100F80000120BDE8F08F0000A00B0020A008002089
:100F9000200B0020044800F47000B0F5000F0CBFD7
:100FA00001200020704700000D2400002DE9F74FBC
:100FB0004FF000089AB016460D46C34601F09CFC5F
:100FC0000446012D18BF022D04D040F67A11FE48C8
:100FD00002F0A4FAFD4901200860FD498968086013
:100FE00000200E90401E1090FA4906EB860001EB9F
:100FF00080031B1D11AF0FCB87E80F0003F0FBFF31
:10100000BDF84E209DF94C101144C91C00F04AFD5A
:101010000F90F048BDF84E90B0F82003ADF85400A2
:10102000B9F1000F14BF4FF0010A4FF0000A1198F8
:101030001690BAF1000F09D0E74890F8300028B9AF
:1010400002F00EFA002808BF012700D00027E3486D
:101050000023179300781E46012818BF03281DD1CE
:10106000DE48B0F80280A8EB09001790C84515D9F2
:10107000CDF804D018A90B9108F103010F9849424B
:1010800000F010FD0B9A019901F0E6FE009811990D
:1010900020F07F400090081A20F07F43002F18BFF7
:1010A000322604D19DF85400002818BF0226B4F15E
:1010B000807F08D01198001B0002C11700EB11605F
:1010C0000012012802DA04201A990BE047B1C24845
:1010D00090F8310020B19DF85400061C18BF02267C
:1010E00021460120B9F1000F02D0179A1E2A02DA18
:1010F0009DF8542012B14FF0010B401E8219B748E1
:101100009DF855E000780B901198C01A20F07F4CA4
:10111000ACEB01000002C61700EB16600012904213
:1011200018DB002B18BFCDF844C0119E0497002790
:1011300001F0C4FA301A0002C11700EB116000126E
:101140003E2840DA012D20D0701E049920F07F4007
:1011500021B32EE083B1BEF1000F04BF0B9803282A
:101160000AD027B99DF85400002818BF921E00230A
:101170008DF854309846C7E70FBB9DF85400F0B186
:1011800000208DF85400921EBEE7B4F1807F21D17B
:1011900040F6F3018C4802F0C1F91BE0B4F1807F06
:1011A00007D0211A0902CA1701EB1261091204299A
:1011B00003DD044601F088FA0CE000290ADD1DB0C9
:1011C0000020BDE8F08F701E20F07F44204601F023
:1011D0007BFA5746B4F1807F04D140F612217A4859
:1011E00002F09CF91198129B001B1B1B8BF0010253
:1011F0007B4920F07F4023F07F43824298BFB0F5C7
:10120000800FDCD29942DAD3204603F0F4FE754A0F
:101210000F9902F1010C0E1AB6EB9C0F24BF431A72
:10122000B3EB9C0F12D3B24203D2101A0844461CEF
:101230000CE09A4204D2511A0844401C464205E090
:1012400040F6F221604802F069F90026624890F801
:10125000350080B9C14534BF40464846BBF1000F58
:1012600014BF00211E210844B04204DB40F62521B2
:10127000554802F053F9284645464FF0000BD84632
:10128000012805D0022001F0B1FC012001F0AEFCE4
:10129000A94516D2A6EB05014FF001034FF003025A
:1012A0004FF0020001F0B2FB002808BF4FF0010828
:1012B000B9F1000F1FD00123A6EB09010322184644
:1012C0000DE010D90123A6EB09010322184601F015
:1012D0009DFB28B37DB1711B01230322022001F085
:1012E00095FBE8B107E055EA090004D040F65D112E
:1012F000354802F013F9012303223146002001F0A2
:1013000085FB68B10125B8F1000F03D01698119044
:101310008DF854B0DFF8D080BAF1000F0ED109E09B
:10132000022001F063FC012001F060FC1DB00020F0
:10133000BDE8F08F284890F8310000B1C7B1DFF860
:1013400098A09AF8300018B101F048FF8AF830B040
:101350009FB1A4F1320020F07F414FF40020C8F883
:10136000000000230322052001F050FBF0B34DE004
:10137000DFF864A09AF83000C8B3174C94F8310035
:1013800050B14FF40020C8F80000052001F02EFCF9
:1013900001F092FF84F831B00EAC0E4894E80E10C4
:1013A000C0F80413C0F80823C0F80C33C0F810C309
:1013B00012AC94E80E10C0F81413C0F81823C0F84B
:1013C0001C33C0F820C313E0FC1A000008050040DD
:1013D00010000020A0080020A00B00201200002018
:1013E000FFFF3F00FF7F841E08F5014009E003E096
:1013F0001DB00120BDE8F08F01F012FF8AF83050D7
:10140000A6E740F259311C4802F088F84FF08044BA
:10141000052001F0C7FC1949C1F81005C1F81445B1
:101420001749E0120860174C94F8310018B901F020
:1014300035FF84F83150A6EB0900A0F11904002C07
:1014400004DC40F64F210C4802F068F80322012327
:101450002146104601F0DAFA38B10B488068C0F82E
:1014600000B00A48C0F800B096E740F65A2102489A
:1014700002F054F890E70000FC1A000098F00140D8
:1014800004F50140A00B00201000002008050040DA
:101490002DE9F041164C94F83300202818BFBDE820
:1014A000F08194F8326004EB860797F82450202DE1
:1014B00004D140F2A6310F4802F030F80E4901EB9A
:1014C000861000EB4500407887F82400012087F85B
:1014D000270084F82F00294684F833503246022032
:1014E00000F076F8002084F82E00BDE8F0810000BE
:1014F000A00B0020FC1A0000200B00202DE9F05F5B
:10150000DFF8B48098F8325008EB850090F8254059
:10151000202C08BFBDE8F09FDFF8A0A0DFF8A09066
:10152000A9F5207B09EB8517072617F81400012879
:101530000DD0042808BF022609D005280CBF0326B9
:10154000062804D04FF40C611EA001F0E7FFBAF1A9
:10155000000F18BFAFF30080EFF3108072B607EBF7
:1015600044014A7808EB850181F8252091F826206E
:10157000A24204BF202281F82620A8B12A46214693
:10158000012000F025F804EB840031465BF82020B0
:101590002046904798F8325008EB850090F8254097
:1015A000202CBFD1BDE8F09F0848002818BFAFF33A
:1015B000008062B6E2E70000A00B002000000000FF
:1015C000200B002072656D2E6300000000000000FB
:1015D0002DE9F04107461748904600250C4600EBE0
:1015E0008816072F07D2DFE807F00B0B0B0B04045C
:1015F0000400012504E040F27E210FA001F08EFFDF
:1016000006F81470002D08BFBDE8F0810C4800EB0F
:10161000880090F8261020290EBF80F8254006EBA0
:1016200041014C70202106EB4402517080F82640A5
:10163000BDE8F081200B002072656D2E6300000074
:10164000A00B00202DE9F35F5B488B4600EB8B0875
:10165000009898F82460012818BF022804D040F6AA
:10166000962156A001F05AFF0027202E49D052485B
:1016700098F82440002590F83510002904BF006830
:10168000857801F01BF8DFF840A104EB84010AEB38
:1016900081014C4B4A688968121A091A22F07F426C
:1016A00021F07F41954298BFB2F5800F01D28B4265
:1016B00025D2464A02EB8B19A44609EB4C014C7823
:1016C000202C12D004EB84010AEB81014A6889685E
:1016D000121A091A22F07F4221F07F41954298BFE9
:1016E000B2F5800FE8D28B42E6D3BCF1200F06D0D2
:1016F0005B46624620210420FFF700FA0446B4420C
:1017000017D13348002818BFAFF3008000F0D6FF90
:10171000294C94F8341020290FD02268216992783E
:101720000244511A0902CA1701EB12610912002979
:1017300003DD02B00020BDE8F09F202E0ED032461F
:101740000099FFF733FC00281CBF88F8277084F845
:10175000346026D002B00120BDE8F09F94F830003C
:1017600018B101F03BFD84F8307094F8310050B1AD
:1017700018494FF400200860052001F037FA01F005
:101780009BFD84F83170042001F030FA01F08EFAEC
:10179000202084F834001048806807600F480760F4
:1017A000D8E75B46324620210420FFF7A7F902B0B4
:1017B0000020BDE8F09F0000A00B002072656D2E98
:1017C00063000000FFFF3F00A0080020200B002066
:1017D0000000000008F5014010000020080500404E
:1017E0002DE9F04F794E074687B096F833008A46C8
:1017F000202804D140F6633175A001F08FFE96F8E1
:10180000330006F11004DFF8D09100EB800009EB03
:10181000800820208DF8000096F8320003AA06EB1D
:10182000800001A990F824507069029070683844D3
:1018300001F012FB9DF90C00002802DD0198401C0C
:101840000190D8F808000199642F084431D3634A05
:101850000021D21B89412CD3D8F80410411A21F061
:101860007F41B1F5800F24D220F07F40606057485F
:1018700084F80CA090F83200EA46202D1CBF58498D
:1018800001EB801B4CD000BF05EB850009EB800805
:101890006068D8F8041008F10406081A0002C1179D
:1018A00000EB1160001228D4708998B3608920B1D0
:1018B00036E007B00120BDE8F08F206803F09BFB05
:1018C000618994F908201144C91C00F0EBF805AABD
:1018D00004A901F0C1FA9DF914000028CCBF012031
:1018E000002000F1330104983268101A0002C21778
:1018F00000EB12600012884212DA8AF8005098F861
:101900001000217B884206D80298606007B003204F
:10191000BDE8F08F04E00BEB45004578202DB3D1F6
:101920002A4DE868B0F1FF3F16D000F0C7FEE96825
:10193000081A0002C11700EB11600012022805DC32
:101940000298606007B00220BDE8F08F052001F02A
:101950004DF94FF0FF30E86095F832309DF80020E7
:101960002021202A13BF052005EB830090F82400D6
:10197000FFF7C4F895F83220194901EB821195F868
:10198000332001EB420148706868384468600120E8
:1019900085F82F00687F01280AD128686969407896
:1019A000012811D880B1081A20F07F4000F034FFE0
:1019B0009DF80000202803D00A48407801F06EFE10
:1019C00007B00020BDE8F08F0120ECE7A00B00205D
:1019D00072656D2E63000000A0080020FF1FA107A4
:1019E000200B00201000002030B52A4C054683B0A3
:1019F00094F83300202804D140F62D3126A001F0C0
:101A00008DFD94F83300264A00EB800002EB800342
:101A100094F8320004EB800090F8241094F832001F
:101A200002F5207C0CEB801020292FD001EB810CDB
:101A300002EB8C0C9CF810C0AC4584BF00EB41015C
:101A40004978F1D801EB810102EB8101986849687E
:101A50006568081A0002C11700EB1160001212D469
:101A600003F0C9FA04466A4601A901F0F5F99DF9A7
:101A700000000028C8BF241A05F16400844222BF78
:101A8000601B03B030BD002003B030BD03B04FF089
:101A9000FF3030BDA00B002072656D2E630000008A
:101AA000A008002070B50D46134A44190021101AF1
:101AB00071EB010004D240F2F35110A001F02EFDB1
:101AC0001048854204DD40F2F4510CA001F026FDDF
:101AD0000D48854204DA40F2F55108A001F01EFDE0
:101AE0000A488442A8BF0A4804DA002CAABF20464C
:101AF000064870BD201870BDFF7F841E72656D2E74
:101B0000630000000020A10700E05EF80080841E52
:101B100000807BE10C4991F83420824204BF886840
:101B2000704710B500EB8000084901EB8004606845
:101B300003F061FAE18994F90C20BDE810401144EA
:101B4000C91CFFF7AFBF0000A00B0020A0080020B9
:101B500010B50B4C94F83300202804D140F6A401B2
:101B600008A001F0DBFC94F8330094F83310074A26
:101B700001EB810152F82120BDE8104004211047FB
:101B8000A00B002072656D2E63000000A0080020ED
:101B900070B5644E6449012506F5407408287CD26E
:101BA000DFE800F0045D8DA0B844A5AA94F83000E9
:101BB00018B901F035FB84F83050608B38B101F072
:101BC0004FFC20B940F65C0158A001F0A7FCFFF7DC
:101BD0005FFC84F82D50E168B1F1FF3F0AD001238A
:101BE0000322052000F012FF20B940F661014FA04A
:101BF00001F094FC607F01280AD120686169407877
:101C0000012811D880B1081A20F07F4000F004FEAE
:101C100094F8330094F8331001EB810156F8212039
:101C2000BDE87040012110470120ECE7FFF730FCD0
:101C30004FF0FF30E06094F82D0020B940F67101BC
:101C40003AA001F06BFC94F8330094F8331001EBE8
:101C5000810156F82120BDE8704006211047FFF7AA
:101C600017FC84F82C5001F0FBFB20B94FF40861FD
:101C70002EA001F053FC94F8300018B901F0D0FA0E
:101C800084F8305094F8310068B12A494FF40020AC
:101C90000860052000F0AAFF00E03BE001F00CFB2B
:101CA000002084F8310094F8330094F8331001EBED
:101CB000810156F82120BDE870400021104701F055
:101CC0003FF8608B38B101F0CBFB20B940F68A01B8
:101CD00016A001F023FC18480078032808BF84F8F8
:101CE000215070BD154805608868056070BD087892
:101CF000BDE8704001F0D2BCFFF7CAFB94F8330096
:101D000094F8331001EB810156F82120BDE87040B2
:101D100005211047BDE8704040F69C0103A001F08A
:101D2000FDBB0000A00800201000002072656D2E91
:101D30006300000008F50140120000200805004083
:101D40002DE9F34FFE4895B088460068FD4CC0056C
:101D5000C00D0ED0103840B20028B8BF00F00F0000
:101D600000F1E020ACBF90F8000490F8140D400999
:101D700030D098F800004FF0000B002818BF012861
:101D800004D040F24A71F0A001F0C8FBF04D25B13B
:101D9000002140F24D70AFF300801598ED4900EB43
:101DA000800001EB80004FF00109019025B1002176
:101DB00040F25570AFF30080B9F1000F1FD000BFA3
:101DC00094F832604FF0000A84F82FA0BBF1000FA6
:101DD0001CD043E094F833004FF0010B202804D1CD
:101DE00040F24371D8A001F099FB98F80000002858
:101DF000CCD040F24671D4A001F090FBC6E7D648A3
:101E0000002818BFAFF3008062B6D9E7374601203B
:101E100020EA0706D148402200EB871100EB86102C
:101E200001F0CCFC25B1002140F2B750AFF30080A7
:101E300004EB870104EB8600496A416225B1002169
:101E400040F2BB50AFF3008025B1002140F25F703B
:101E5000AFF3008094F82F000028A7D125B100210E
:101E600040F26970AFF3008000F028FC074602A83A
:101E7000089098F80000002898F80B008DF81500DD
:101E800098F80A108DF81410B8F80810ADF8121070
:101E90000090D8F804305CD000220898FEF7F0FDDE
:101EA000069720680FAA09A990F80390BDF81200C0
:101EB00000F0D2FF94F83300202850D060694844E5
:101EC00020F07F40DDE90221891A0290084420F0C9
:101ED0007F40039031460898FEF758FE98F80B00B3
:101EE0000090B946B8F8081010A8D8F80430D8F80F
:101EF0000C20FEF7C5FD0298039AA0EB090020F024
:101F00007F40A2EB0902119922F07F42B0F5800FC9
:101F100001D2914209D2DDE90221891A781827F00D
:101F20007F4220F07F40CDE9022025B100214FF40F
:101F3000EE60AFF30080894A3946DDF8549002EB39
:101F4000861702A817F81920012A18BF022A1DD0E7
:101F50005CE0D8F80C200898FEF792FDE5E70698BB
:101F6000484400F10409BDF8120028B101F078FAE4
:101F7000002808BF09F1320979484178099881425F
:101F800084BF081A814429F07F409BE72268DDF86E
:101F90000CC0DFF8D0A19378029A521A22F07F4247
:101FA000ACEB010121F07F41934298BFB2F5800F65
:101FB00066D28A4564D34FF0010A10AB0FAA3146AE
:101FC000FEF742FFF0B39DF83C109DF840203346E9
:101FD0008A4261D00520FEF791FD00BF07EB490161
:101FE00048709DF83C00202803BF04EB860080F871
:101FF000249080F827A007EB400018BF80F80190DC
:10200000324649465FF00300FFF7E2FA04EB860030
:1020100090F8277025B1002140F27770AFF300806F
:102020005148002818BFAFF30080EFF3108972B653
:1020300025B1002140F27D70AFF3008094F82F00AD
:10204000002800E024E07FF4B1AE25B1002140F289
:102050008570AFF300800DF1040EBAF1000F9EE819
:102060000F1000F1040080E80E1041D025B10021CE
:1020700040F29270AFF30080BBF1000F2BD115E05E
:10208000324649460420FFF7A3FA4FF0010ABDE7A4
:10209000324649460420B7E7202919BF07EB410023
:1020A000407804EB860090F8240097E79FB194F8FD
:1020B000330020280FD125B1002140F29770AFF3F3
:1020C000008031460220FFF7BDFA20B998F80000E1
:1020D000A8B3012861D025B1002140F2B470AFF35C
:1020E000008084F83260012084F82F004FF0010A4C
:1020F00025B1002140F2BD70AFF30080B9F1000FAF
:1021000054D025B1002140F2C170AFF30080BAF184
:10211000000F11D094F8320004EB800090F82500F5
:10212000202809D025B100214FF4F960AFF30080D9
:102130000E48407801F0B2FAF5B1002118E01FE036
:1021400004ED00E0A00B002072656D2E630000001E
:1021500000000000A008002000000000200B00206C
:1021600012000020FFFF3F000000000010000020D0
:1021700040F2CD70AFF3008017B05046BDE8F08F4D
:1021800025B1002140F29F70AFF3008094F8322017
:1021900004201599FFF71CFAA8E7002D3FF406AEBE
:1021A000002140F2AA70AFF30080FFE50348002849
:1021B00018BFAFF3008062B6A3E700000000000084
:1021C00010B5202811D20E4991F83230A1F18002C9
:1021D00002EB831C1CF810303BB191F8323002EB5B
:1021E000831212F81020012A01D0002010BD91F8AE
:1021F000322001460020FFF7EBF9012010BD00005E
:10220000A00B002003460E4810B590F832200024A1
:10221000803800EB821000BF10F8141029B1611C47
:10222000CCB2202CF8D3202010BD064904EB84004A
:1022300041F8203021460120FFF7CAF9204610BDA1
:10224000A00B0020A00800202DE9F04100F036FA94
:10225000054600F02BFD444CE068B0F1FF3F1CBF89
:102260004FF0FF30E06094F83500C8B9D4E90401BC
:10227000081A0002C11700EB116000124FF40C7134
:1022800001F0BCF861690844281A0002C11700EB8C
:102290001160001204D440F24B4134A001F03EF929
:1022A000607F88B100F02EFB94F82E0020B140F240
:1022B0005C412EA001F032F9012784F82E7094F8C9
:1022C000330020280BD105E0E81C20F07F4000F00F
:1022D000FBF9E9E740F25F4124A001F01FF994F80F
:1022E0003380202084F8330084F83400002584F8FB
:1022F0002C5084F82D501F4865600078022816BFC6
:1023000003280120002084F8200094F832604FF068
:1023100001003146FFF796F90028F8D0164800EB87
:10232000861010F81800022804D1324641460620D3
:10233000FFF74EF984F82F7004EB860090F8250023
:10234000202803D00D48407801F0A8F994F8200027
:10235000002808BFBDE8F08100F0F2FC84F82050AE
:1023600084F82150BDE8F081A00B002072656D2E2D
:102370006300000012000020200B0020100000204D
:1023800030B51F4C054683B094F83300202804D1A3
:1023900040F6CE211BA001F0C1F8E068B0F1FF3F8C
:1023A00004D040F6CF2117A001F0B8F82946A06864
:1023B000FFF778FB01AA694600F04EFD9DF9040085
:1023C0000F28CCBF012000200099084420F07F4155
:1023D000E16094F82D00002804BF03B030BD012354
:1023E0000322052000F012FB00281CBF03B030BD03
:1023F00040F6D72103B003A0BDE8304001F08EB80D
:10240000A00B002072656D2E6300000070B5224C99
:10241000202084F8240084F8250084F82600002574
:1024200084F8275084F8325084F83300691E6560C0
:10243000E16084F82C5084F82D5084F8205084F802
:10244000215084F8340084F83050144884F8315016
:1024500084F83550057045704580FEF79BFD0028D7
:102460000CBF0F480F4820600F481021491E85708F
:1024700000F8045FFAD1012084F82E000B4CFF20F5
:1024800020700B4801F0E0F8607001F055F9A06091
:10249000BDE8704000F0A4BCA00B0020120000209A
:1024A000565200005A5200001E0B0020100000205F
:1024B000FD1400002DE9F041244CD4F804034FF042
:1024C000000510F4803F4FF400664FF0E0271CBF7A
:1024D000D4F8400100280BD04FF48030C4F8080332
:1024E000C4F84051C7F880624FF00400FFF750FB7A
:1024F000D4F8040310F4003F1CBFD4F844010028B2
:102500000BD04FF40030C4F80803C4F84451C7F8A6
:1025100080624FF00500FFF73BFBD4F8040310F492
:10252000802F1ABFD4F848010028BDE8F0814FF48D
:102530008020C4F80803C4F84851C7F88062BDE899
:10254000F0414FF00600FFF723BB000000B0004051
:102550002DE9F0413A4C207804286BD0E51C01218C
:10256000287878B1012808BF617006D0607820B95A
:102570004FF45C7133A000F0D1FF0220287068781E
:1025800000F034FB354DD5F804034FF0000810F48B
:10259000002F4FF480764FF0E0271CBFD5F84C0198
:1025A000002808D04FF0030000F020FBC7F880623D
:1025B0000320FFF7EDFAD5F8040310F4802F1CBFB9
:1025C000D5F84801002808D04FF0020000F00EFBBB
:1025D000C7F880620220FFF7DBFAD5F8040310F495
:1025E000003F1CBFD5F84401002808D04FF001007F
:1025F00000F0FCFAC7F880620120FFF7C9FAD5F8AD
:10260000040310F4803F1ABFD5F840010028BDE84C
:10261000F0814FF0000000F0E9FAC7F88062042072
:102620002070C4F80880C5F80082BDE8F0410020A1
:10263000FFF7AEBABDE8F0410720FFF7A9BA0000E6
:102640001C00002072656D5F68616C5F6576656E69
:10265000745F74696D65722E630000000080004035
:10266000012213024FF0E0210020C1F8803101F572
:10267000C071BFF34F8FBFF36F8FC1F800310C49AA
:102680004A60431EC1F808330A4B1860C1F8400184
:102690001B1D1860C1F844011B1D1860C1F84801DA
:1026A0001B1D1860C1F84C010A610349487070474E
:1026B00000800040408500401C0000200148006868
:1026C0007047000004B500402DE9F05F424E04461B
:1026D000F71E96F800C0F868BCF1010F04BFA042D5
:1026E000BDE8F09F4FF040413C4A11603C496FF417
:1026F0008023C1F808333B4A4FF00005BCF1000FBE
:1027000057D06FF4A023C1F848331560C1F8445185
:10271000D1F848214FF0E0294FF00108002A04BF0A
:102720004FF40062C9F880224FF48033C1F80833B7
:10273000C1F84833C1F840512B4AD2F800A0A4EBAD
:102740000A0A2AF07F4BBBF1020F3CD34FF0020A7A
:10275000BBF5800F37D2C1F84045C1F84433BCF116
:10276000000F05D01168411A21F07F410229F9D3E9
:10277000C7F808803D70FFF773FF1C480560001D17
:10278000C0F800A01A49042008601A49C1F80C805A
:10279000BA68C1F800228101C9F88012C9F8001195
:1027A000154A41071160FC60707086F80080BDE832
:1027B000F09FC1F84833114B1D60C1F840511560BE
:1027C000C1F84451A4E7C1F84055BDE8F05F40F2BC
:1027D000A3110BA000F0A2BE1F00002008F50140CD
:1027E00000B0004044B5004004B5004004850040FE
:1027F000108500400080004004F5014040B50040D5
:1028000072656D5F68616C5F6576656E745F746933
:102810006D65722E6300000070B52B4E0446F068A3
:10282000A04214BF01200020284D2978022901D0A0
:1028300010B106E028B970BD40F2B11124A000F03B
:102840006DFE707820B940F2B51121A000F066FE4F
:1028500025494FF08040086024498313C1F80833AC
:10286000C1F848330020C1F84001214AD2F800C025
:10287000A4EB0C0C2CF07F4CBCF1020F1AD3BCF56E
:10288000800F17D2C1F84045C1F84433287800289A
:1028900018BFF16805D01068081A20F07F43022B9A
:1028A000F9D3144A0220410711600421F4606970D1
:1028B000287070BDC1F84005BDE8704040F2C111FC
:1028C00003A000F02BBE00001C0000201F00002011
:1028D00072656D5F68616C5F6576656E745F746963
:1028E0006D65722E6300000008F5014000B00040E5
:1028F00004B5004004F501400148C068704700007D
:102900001C0000202DE9F04132486FF48023C0F80C
:102910000833314F314A0024397861B16FF4A02374
:10292000C0F848331460C0F8444100BFD0F84801F3
:10293000012680B909E0C0F84833294B1C60C0F873
:1029400040411460C0F84441F0E74FF0E0224FF4FA
:102950000060C2F88002022904D040F2CD1121A00B
:1029600000F0DCFD254A1068254DC01C20F07F409A
:10297000E968DFF8908088420BD01368CB1A23F007
:102980007F43042B05D3B3F5800F02D2FFF79CFEE3
:102990001BE01068081A20F07F40022813D3B0F51E
:1029A000800F10D218494FF080400860AE602C7044
:1029B000C8F80460C8F80C604000091F08600420D3
:1029C00078703E7001E0AE602C70A868C8F8000214
:1029D000BDE8F08100B000401F00002044B5004079
:1029E00040B5004072656D5F68616C5F6576656ECD
:1029F000745F74696D65722E6300000004B5004059
:102A00001C0000200080004008F501402DE9F0473F
:102A10000646DFF894A10127994615460C464FF06B
:102A20000008072E80F0B880DFE806F004040404F4
:102A3000707070005D48C168B1F1807F04BF40785C
:102A4000002804D14FF4007159A000F067FD9AF8F6
:102A50000000022837D19AF801108A0002F1804361
:102A60000A1F1206920D02F1804203F5004302F59F
:102A7000304200BF4FF0000C012802D0022810D0D5
:102A80001EE0042905D2D3F840A1BAF1000F17D1F6
:102A900004E0D2F840A1BAF1000F11D14FF0004C80
:102AA0000EE0042905D2D3F840A1BAF1000F07D1F6
:102AB00004E0D2F840A1BAF1000F01D14CF0804CF3
:102AC0001CF0804FD6D1404A06F1100007FA00F101
:102AD000C2F80813B000104475B10764D0F840C5BF
:102AE000A4EB0C0323F07F439D4298BFB3F5800F06
:102AF00028BFC0F840854CD2C0F84045B9F1010F5D
:102B000008BFC2F804130120BDE8F0879AF800005E
:102B100040B19AF80100B04204D140F2272124A02C
:102B200000F0FCFC301FC6B2B9F1010F18BF4FF026
:102B30000009032E04D340F2011124A000F0EEFCA2
:102B4000284906F1100007FA00F0C1F80803C1F89F
:102B50004803B2005318C3F8408175B1224AD2F835
:102B600000C0A4EB0C0222F07F42954298BFB2F560
:102B7000800F28BFC3F840850BD2C3F84045B9F198
:102B8000000F18BFC1F80403C1F844030120BDE8D9
:102B9000F0870020BDE8F0874FF40B7104A000F02F
:102BA000BDFC0020BDE8F0871F0000201C000020B5
:102BB00072656D5F68616C5F6576656E745F746980
:102BC0006D65722E630000000080004072656D5FCD
:102BD00068616C5F6576656E745F74696D65722E91
:102BE0006300000000B0004004B50040F8B50127C4
:102BF0000024072843D2DFE800F00404040416167A
:102C00001600224A00F1100107FA01F1C2F8081378
:102C100081001144C1F84045C1F840411C4951F8B8
:102C200020000090F8BD1B4D011FCEB2297879B16C
:102C30006A7882420CD1184A4FF040401060012956
:102C400008BFFFF70DFD2C7014494FF08070C8606D
:102C500006F1100007FA00F11148C0F80813C0F897
:102C60004813B00000F1804000F53040C0F8404506
:102C7000C0F840410B4850F826000090F8BDBDE870
:102C8000F84040F29921084800F048BC008000401C
:102C9000408100401F00002008F501401C0000207A
:102CA00000B0004040B10040CC2B00001E496FF442
:102CB0008023C1F808331D481D4A90F800C0002049
:102CC000BCF1000F0AD06FF4A023C1F848331060A4
:102CD000C1F84401D1F8481181B909E0C1F848337D
:102CE000144B1860C1F840011060C1F84401F1E7CD
:102CF0004FF0E0224FF40061C2F880120E494FF00D
:102D0000FF32C1F808230D4A1060C1F84001121DBE
:102D10001060C1F84401121D1060C1F84801121D75
:102D20001060C1F84C01704700B000401F00002047
:102D300044B5004040B50040008000404085004060
:102D4000084890F902000028B8BF704700F01F0142
:102D5000012202FA01F14009800000F1E020C0F8F0
:102D6000001270471C00002010B507280DD2DFE8C4
:102D700000F00404040406060600074902E0001FF0
:102D80000649C0B201EB800010BD4FF41471044835
:102D900000F0C4FB002010BD4081004040B1004065
:102DA000CC2B000010B507280DD2DFE800F004049A
:102DB000040406060600074902E0001F0649C0B2E7
:102DC00001EB800010BD4FF41471044800F0A6FB25
:102DD000002010BD4081004040B10040CC2B0000DD
:102DE00070B51948002404210470C01E01708905C3
:102DF000C160FFF735FC01254FF0E02CEB02CCF869
:102E00008031BFF34F8FBFF36F8FCCF880320F4A02
:102E1000556095600E4801680029FCD1481EC2F833
:102E20000803C2F848030B480460C2F84041001D83
:102E30000460C2F84441001D0460C2F84841CCF867
:102E40000031156070BD00001F00002000B0004080
:102E500004B5004040B50040430B48F2376C03FB1B
:102E60000CF31B0C4FEA432CC1F800C0DFF838C04C
:102E700003FB0C030D484CF2F72C5843400D10FB9C
:102E80000CFC0CEB432303F580735B1213700B688F
:102E90001844086010781F2818BF70470020107071
:102EA0000868401C08607047F7C2FFFF6F0C010004
:102EB0002DE9F0414FF480718D05284602F0C8F8E5
:102EC00080464FF48271284602F0C2F80026074679
:102ED000B8F1000F0AD00120C5F80803074C20798B
:102EE00020B12671A06908B18047A6610FB1C5F86D
:102EF00004614046BDE8F04100F048B82C000020D5
:102F000010B500F08DF900F0ABFA022308495A071A
:102F100030B108480360012010610320487203E0CB
:102F20004B720120C2F804030020C87110BD0000DC
:102F30002C000020340C004070B5134CA079F0B187
:102F4000012803D0E179401E814218DA00F088FAA6
:102F5000054600F037FBA179012902D9E179491C26
:102F6000E1710DB1616900E02169411A022902DABB
:102F700011F1020F07DC0DB1606100E02061BDE8D6
:102F80007040FFF7BDBF70BD2C0000202DE9F05F41
:102F900006464FF080454FF48671284602F058F8F7
:102FA00082464FF48871284602F052F8244C83463A
:102FB00094F8008004F1080002F0BDF820B14FF44D
:102FC000C37120A000F0AAFADFF88890012746B16B
:102FD000607A022805D1032060720221C9F800102E
:102FE0002F610026BAF1000F0ED0C5F80C61607A8F
:102FF000032804D040F29D1112A000F08FFAC9F806
:103000000060677200F0EAF8BBF1000F07D0C5F866
:103010001061607A012801D1FFF78EFF6F61B8F16E
:10302000000F07D02670607A012801D1FFF768FFF2
:1030300000F0D4F8BDE8F05F0148083002F092B823
:103040002C0000206D70736C5F636C6F636B2E637C
:1030500000000000340C00402DE9F05FDFF86091C3
:10306000017843788278002489F80A1089F80530BD
:1030700089F806200646274689F807404FF0804A1F
:10308000052917D2DFE801F01B0305101300012406
:1030900015E000F0C5F854460121204601F0DDFF9F
:1030A0000028F9D002240AE04FF4003407E04FF47E
:1030B000403404E04FF41E7142A000F02FFA01F0FA
:1030C000F8FF58B100F0E6F904F00305A84205D175
:1030D000284601F0DEFF0028FAD053E04FF0010847
:1030E0005546CAF80C80CAF80471CAF8184502F0AF
:1030F00044F840B902F04BF828B902F052F810B980
:1031000002F063F838B14FF08050D0F844023149F2
:10311000C0F3423008602F491031C1F8008002210D
:10312000C5F80413C5F80880DFF8ACB0DBF8001070
:10313000C94341F30018DBF8001041F01001CBF84F
:10314000001008F1010801E000F008FB4FF4827163
:10315000284601F07DFF0028F6D004F00304204645
:1031600001F097FF0028FAD0B8F1000F05D1DBF885
:10317000001021F01001CBF800100221C5F808134F
:10318000C5F8047199F806004C4670B1307860B902
:1031900000F066F9054600F015FA6FF0004215B12F
:1031A000C4E9042001E0C4E904020121504601F011
:1031B00054FF08B100F04EF96772BDE8F09F0000BF
:1031C0002C0000206D70736C5F636C6F636B2E63FB
:1031D000000000003C05004010ED00E070B5EFF38A
:1031E000108472B6094D687818B9FF2108A000F064
:1031F00095F96878401E6870687818B9A87808B999
:1032000000F03CF9002C00D162B670BD2C0000200B
:103210006D70736C5F636C6F636B2E6300000000F6
:1032200010B5EFF3108472B606484178491C41701E
:103230004078012801D101F027FF002C00D162B6AF
:1032400010BD00002C000020054810B5C17821B148
:1032500000210171C170FFF7C1FF002010BD000007
:103260002C00002070B50C4CE17861B90125E570A7
:10327000A061FFF7D5FF00F0F3F830B1A06910B1FD
:1032800080470020A061002070BD4FF08040257174
:10329000C0F80453F7E700002C000020EFF3108083
:1032A00072B604498A78521C8A70002800D162B62E
:1032B000704700002C00002070B5EFF3108472B648
:1032C0000A4DA87820B940F2231109A000F026F990
:1032D000A878401EA870687818B9A87808B900F0D6
:1032E000CDF8002C00D162B670BD00002C0000208B
:1032F0006D70736C5F636C6F636B2E630000000016
:103300002DE9F04104006FF015003BD0217804292D
:1033100038D80029617837D0002933D1A178002925
:1033200030D1002001F083FE002001F073FE4FF049
:1033300080484FF0FF31C8F808130025C8F8005145
:10334000C8F80451C8F80C51C8F81051134E7570E4
:10335000A088B08101F08FFE012708B1F770777067
:103360000121404601F079FE08B100F073F82046D3
:10337000FFF772FE002001F04DFE4FF0E0212846DD
:10338000C1F80071BDE8F0810029FBD02029F9D8EF
:10339000A1782129F6D80129C3D1F3E72C00002018
:1033A000F8B5154DA87A002825D14FF08044182093
:1033B000C4F808030126A6614FF42070ADF80000A0
:1033C000BDF80000411EADF80010F9D20027C4F886
:1033D0000C71C4F810710848083001F0BFFE2F705E
:1033E000FFF78EFD6661687900F07F00C4F838054C
:1033F0001820C4F80403F8BD2C00002070B5024664
:10340000002000291DD0A2FB0101440A44EAC15456
:10341000480A641C40F1000040F2A175611940F1B6
:103420000000491C40F100020020D1F1FF31904121
:1034300003D26A2103A000F071F804F5F464B4FB30
:10344000F5F070BD6D70736C5F636C6F636B2E63B2
:103450000000000001490120087070475C00002056
:103460004FF08040D0F8000118B9034800780028D8
:1034700000D00120704700005C0000204FF0804029
:10348000012141600021C0F800110148017070471E
:103490005C0000200248006800F003007047000054
:1034A0001C04004010B541B1012909D04FF442710C
:1034B00006A000F033F8002010BDD0F8140401E09D
:1034C000D0F8080400F0010010BD00006E72665FC5
:1034D000636C6F636B2E6800064810B500210160B5
:1034E00001210160084601F0FBFDBDE8104001200C
:1034F00001F0E9BDFC1F0040074810B50121416003
:10350000891EC0F808130C2001F0EAFDBDE8104048
:103510000C2001F0D8BD000000C00040024A5268F3
:1035200002B11047FEE700004800002070B5174CBC
:1035300006460D46607810B14FF0FF3070BD06B9F9
:10354000134E62602570FFF7C7FFFFF7D5FF3046C7
:10355000FFF7D6FE0600F1D1FEF758FFFFF720FF78
:1035600001F0F0FC284601F0AEFD0120002D09DB42
:1035700005F01F0100FA01F16A09920002F1E02250
:10358000C2F800116070304670BD00004800002095
:1035900002510000014840787047000048000020B8
:1035A000074890F90000002809DB00F01F02012104
:1035B00091404009800000F1E020C0F800127047FF
:1035C000480000202DE9F04101264FF0E0223103B0
:1035D0004FF000084046C2F88011BFF34F8FBFF391
:1035E0006F8F164CC4F800010C2001F097FD144DAC
:1035F0002868C04340F30017286840F01000286096
:10360000C4F8046326607F1C02E000BF00F0A6F847
:10361000D4F800010028F9D01FB9286820F0100064
:103620002860084805686660C4F80863C4F800812B
:103630000C2001F073FD2846BDE8F08100C0004079
:1036400010ED00E008C5004010B5024605200D4908
:1036500004E000BF01EBC0031B7943B1401EC0B2C0
:10366000F8D24A2108A0FFF759FFFF2010BD41F80A
:10367000302001EBC00100224A718A7101220A71D7
:1036800010BD0000D80B00206D70736C5F7369670C
:103690006E616C6C696E672E6300000010B50446A5
:1036A000052803D359210CA0FFF738FF0F4800EB82
:1036B000C4042079012803D05A2107A0FFF72EFF68
:1036C0006079A179401CC0B2814200D06071BDE830
:1036D0001040FFF765BF00006D70736C5F73696722
:1036E0006E616C6C696E672E63000000D80B002061
:1036F00070B505250E4E0F4C16E0217806EBC10083
:103700000279012A08D1427983799A4204D0427918
:10371000827156F8310080472078401CC0B220707A
:10372000052801D3002020706D1EEDB2E5D270BDDA
:10373000D80B00205D00002000B501F05CFD28B929
:1037400001F04FFD10B901F036FD08B1014800BD90
:10375000014800BD00E701400C05004010B501F034
:1037600034FDE0B1EFF31080D8B1002172B61248F9
:1037700002680368C2F3001243F0100303604FF0C5
:10378000E023D3F80042D3F804321C4300D040BFFA
:1037900020BF00BF00BF00BF00BF22B107E020BFB5
:1037A00010BD0121E2E7026822F010020260002948
:1037B000F6D062B610BD000010ED00E010B580EA52
:1037C00001040346A40707D015E0002A15D011F81C
:1037D000014B03F8014B521E9C07F6D102E010C9C1
:1037E000121F10C3042AFAD205E000BF11F8014BE2
:1037F00003F8014B521E002AF8D110BD0A4810B53B
:10380000817804290AD010290CD020290AD0BDE8DB
:10381000104040F2AD1105A0FFF780BE102181706D
:1038200019F0AEFC10BD0000500000206E72665F03
:103830007261616C5F72656D2E63000070B50B4C38
:10384000207820B940F2FB2109A0FFF767FEEFF3D3
:10385000108572B6A078102803D10820A070FEF75A
:10386000F3FC002D00D162B670BD000050000020B6
:103870006E72665F7261616C5F72656D2E630000CF
:1038800070B5144C207820B940F2B12112A0FFF796
:1038900045FEEFF3108572B6607940B1022808D07A
:1038A0004FF431710CA0FFF739FE65B10CE0012037
:1038B00003E0A1780020042901D06071F5E7607170
:1038C00048F0CCF8F1E762B6E078BDE87040FFF769
:1038D000E5BE0000500000206E72665F7261616C90
:1038E0005F72656D2E63000070B5104C207820B9B2
:1038F0004FF437710EA0FFF711FEEFF3108572B68B
:10390000607940B1012808D04FF43B7108A0FFF75F
:1039100005FE2DB105E0022000E000206071F8E70F
:1039200062B6E078BDE87040FFF7B8BE50000020F6
:103930006E72665F7261616C5F72656D2E6300000E
:1039400010B5144C207820B140F26E2112A0FFF780
:10395000E5FD002060700120A07013484FF4C851AD
:10396000016005210181B721418141F2941141603B
:103970000E48FFF769FEE0700D48FEF743FC20712A
:10398000202804D140F27D2103A0FFF7C7FD0120CC
:10399000207010BD500000206E72665F7261616C15
:1039A0005F72656D2E630000100C0020F93A000074
:1039B000013A00000E488178042901D000207047A8
:1039C000807980B10B48011DD1F84015D0F804056D
:1039D000081A401E084920F07F40A0FB0101C00BDF
:1039E00040EA41407047054801684089081A70471D
:1039F0005000002000B0004040420F00100C00209A
:103A00002DE9F041354C0F462179884204D040F22F
:103A1000C31133A0FFF782FD354ED6F8040500250B
:103A2000082F33D2DFE807F032043D3D231C4E431C
:103A30000121022000F034F9607858B10420A07010
:103A40002C480068A060A5716079022841D048F038
:103A500005F83EE02020A070BDE8F041FEF7F4BB81
:103A6000BDE8F0414FF4FB711DA0FFF757BD607832
:103A700000280BD0A07804280AD04FF0E0210220C3
:103A8000C1F88001BFF34F8FBFF36F8FBDE8F081A6
:103A900000F094F810B1D6F84401B0B947F019FE1F
:103AA000F4E70121022004E00120A070EEE70121EB
:103AB000282000F0F5F860780028F5D0BDE8F04146
:103AC00000F0C2B800F07AF818B1BDE8F041FFF795
:103AD00095BEBDE8F04100F079B80000500000202C
:103AE0006E72665F7261616C5F72656D2E6300005D
:103AF00000B00040100C002070B5EFF3108472B6D7
:103B0000254D002668796E7100283CD001280AD026
:103B100002281ED084F31088BDE870404FF4C771AE
:103B20001EA0FFF7FBBC84F31088687820B140F238
:103B30003B111EA0FFF7F2FC0021142000F0B0F8AA
:103B400001206870A87801281FD1BDE8704000F0FE
:103B50007BB8687820B94FF4A67114A0FFF7DEFC9B
:103B60006E70A87808280ED004DC02280BD0042838
:103B700004D10BE0102809D0202804D04FF4B471F0
:103B80000AA0FFF7CBFC84F3108870BD2020A8703A
:103B9000FEF75AFBF7E70000500000206E72665FE8
:103BA0007261616C5F72656D2E6300006E72665F9C
:103BB0007261616C5F72656D2E63000002488079EE
:103BC000012800D0002070475000002070B504206C
:103BD000FDF70AFF164D2968814200D808460646BF
:103BE0000421FDF7FDFD134C012140B101281AD03D
:103BF000BDE870404FF497710FA0FFF78FBC2868A5
:103C0000B042A06806D1FEF7BBFB2868A168084453
:103C1000A06070BD3044A060A1716989401ABDE800
:103C20007040FEF7ADBBA1716889A168081AF6E77C
:103C3000100C0020500000206E72665F7261616C93
:103C40005F72656D2E6300000F4810B500210160A2
:103C500001228160027001810421817200F1100152
:103C60000A6842604968C1600848022181700649BB
:103C70000079FEF765F8002805D1BDE81040F12174
:103C800003A0FFF74BBC10BD000C0020500000202B
:103C90006E72665F7261616C5F72656D2E630000AB
:103CA00070B505460D480E46847814B1601E044276
:103CB00003D0CB210AA0FFF731FC26B12C40A0068F
:103CC0000AD1D02103E0AC43A00605D1D421BDE840
:103CD000704003A0FFF722BC70BD00005000002020
:103CE0006E72665F7261616C5F72656D2E6300005B
:103CF00038B5A0F10B040D460F2C03D9362108A0CE
:103D0000FFF70CFCE1B26B462A460420FCF712FCDC
:103D100018B13F2102A0FFF701FC9DF9000038BD5A
:103D20006E72665F3830323135345F66616C2E6397
:103D30000000000080B582B000AF78607B68002290
:103D40001A607B680433184637F060FB7B680022FA
:103D5000C3F884207B688833184637F049FB7B68BA
:103D6000AC33184637F044FB7B68D033184637F045
:103D70003FFB7B68F433184637F03AFB7B6803F56A
:103D80008C73184637F034FB7B6803F59E73184636
:103D900044F0E4FC7B6803F5A473184644F0DEFCB1
:103DA0007B6803F5AA73184644F0D8FC00BF0837B7
:103DB000BD4680BD80B582B000AF78607B68002BC7
:103DC00034D07B6800221A607B680433184637F0D1
:103DD00091FB7B688833184637F07CFB7B68AC33FB
:103DE000184637F077FB7B68D033184637F072FB04
:103DF0007B68F433184637F06DFB7B6803F58C73F2
:103E0000184637F067FB7B6803F59E73184644F04D
:103E1000ABFC7B6803F5A473184644F0A5FC7B68F3
:103E200003F5AA73184644F09FFC00E000BF083772
:103E3000BD4680BD80B584B000AF786008461146AD
:103E40001A460346FB700B46BB7013467B706FF03F
:103E50006D03FB607B68FA7883F88020BB78184696
:103E60000FF0CCFB02467B681A607B681B68002B56
:103E700001D1124B1EE07B6804337A781146184654
:103E800039F0CEFEF860FB68002B0BD17B6803F5A0
:103E9000AA73FA69B969184644F039FEF860FB68FC
:103EA000002B00E000BFFB68002B02D07868FFF712
:103EB00081FFFB6818461037BD4680BD80AFFFFF0D
:103EC00080B483B000AF78607B681B68002B08D09B
:103ED0007B681B79002B04D07B68D3F85C31002B06
:103EE00001D1044B00E0002318460C37BD4680BCCE
:103EF000704700BF80B0FFFF80B588B002AFF860A8
:103F0000B9607A603B606FF06D037B61FB681B6892
:103F1000BA689A4205D3FB681B68BA68D31A042BA7
:103F200001DC204B3AE0FB681B680433FA68126836
:103F30000432B9688A1A114607F110020191009300
:103F400013463A68396A786837F078FB78617B699C
:103F5000002B01D07B6921E03B691A0EFB681B68CE
:103F6000D2B21A703B691A0CFB681B680133D2B2DB
:103F70001A703B691A0AFB681B680233D2B21A70C6
:103F80003A69FB681B680333D2B21A70FB681A687F
:103F90003B6904331A44FB681A600023184618373B
:103FA000BD4680BD00B1FFFF90B5FDB002AF07F187
:103FB0000C04206007F108000160391D0A603A46D0
:103FC00013606FF06D03C7F8E43107F1300307F1B8
:103FD00034021A6007F1340303F2A513C7F8E03185
:103FE000D7F8000200F062FFC7F8DC013B1D07F1C3
:103FF000080207F130003946096800911B68126811
:10400000D7F8E011FFF778FFC7F8E401D7F8E431FB
:10401000002B40F0C5803B1D07F1080207F130007E
:10402000D7F8F81100911B681268D7F8E011FFF774
:1040300063FFC7F8E401D7F8E431002B40F0B28009
:104040003B1D07F1080207F13000D7F8FC11009181
:104050001B681268D7F8E011FFF74EFFC7F8E401BC
:10406000D7F8E431002B40F09F8007F130031B6844
:10407000D7F8E021D31A032B01DC514B9BE0D7F892
:10408000DC31180E07F130031B68591C07F13002B0
:104090001160C2B21A70D7F8DC31180C07F1300386
:1040A0001B68591C07F130021160C2B21A70D7F8B0
:1040B000DC31180A07F130031B68591C07F1300284
:1040C0001160C2B21A7007F130031B68591C07F166
:1040D00030021160D7F8DC21D2B21A7007F1300338
:1040E0001B68D7F8E0219A420AD307F130031B6816
:1040F000D7F8E021D31A1A46D7F8DC31934201D918
:104100002F4B58E007F130031B68D7F8DC21D7F8B4
:104110000012184648F00CF907F130031A68D7F876
:10412000DC311A4407F130031A6007F130031A68D2
:1041300007F13403D31A1A4607F1100307F13401CB
:1041400007F10C0000680FF0BDFAC7F8E401D7F8DA
:10415000E431002B2AD107F10C03186846F0D7F898
:1041600003461A4607F110031946D7F8040244F033
:10417000CEFCC7F8E401D7F8E431002B18D107F1E1
:1041800008031B684C331A46D7F80412D7F8040208
:1041900045F037FAC7F8E401D7F8E431002B08E01E
:1041A00000BF06E000BF04E000BF02E000BF00E087
:1041B00000BFD7F8E431184607F5F677BD4690BD45
:1041C00000B1FFFF80B5A2B004AFF860B9607A60BB
:1041D0003B606FF06D037B6707F14C03184637F0C7
:1041E00007F907F12803184637F002F907F11C0315
:1041F000184644F0B3FA07F11003184644F0AEFA3B
:10420000D7F888301B68D7F88C209A4201D2574BD8
:10421000A7E0D7F888301B68D7F88C20D31A07F1AD
:104220004C01D7F88820B86837F000FB78677B6FBF
:10423000002B78D1D7F888301B68D7F88C209A42A9
:1042400006D3D7F888301B68D7F88C209A4202D161
:10425000464B7B6770E0D7F888301B68591CD7F84D
:10426000882011601B783B67D7F888301B68D7F827
:104270008C209A4209D3D7F888301B68D7F88C2055
:10428000D31A1A463B6F934202D9384B7B6753E0EF
:10429000D7F88830196807F11C033A6F184644F0C4
:1042A00036FC78677B6F002B3FD1D7F888301A68CF
:1042B0003B6F1A44D7F888301A6007F11003039354
:1042C000D7F884300293D7F88030019307F14C037C
:1042D00000933B687A68B968F868FFF765FE78670D
:1042E0007B6F002B23D107F1100207F128013B68F7
:1042F000019307F11C030093D7F88030B86838F0B9
:1043000093FA78677B6F002B13D107F14C0207F10A
:1043100028031146184637F077F90346002B0AD0D8
:10432000134B7B6708E000BF06E000BF04E000BF5E
:1043300002E000BF00E000BF07F14C03184637F071
:10434000C9F807F12803184637F0C4F807F11C0331
:10435000184644F009FA07F11003184644F004FA2D
:104360007B6F18467837BD4680BD00BF80B0FFFF29
:1043700000B2FFFF80B59AB004AFF860B9607A6010
:104380003B606FF06D037B65FB6E1B683A6F9A4272
:1043900001D2684BCAE007F13003184637F028F81D
:1043A00007F12403184644F0D9F907F11803184619
:1043B00044F0D4F907F1300107F12402BB6F0193F7
:1043C0007B6F00930B463968B86838F0ADFA7865B2
:1043D0007B6D002B40F08D8007F118030393BB6EBB
:1043E00002937B6E019307F1300300933B687A6878
:1043F000B968F868FFF7D8FD78657B6D002B7AD136
:1044000007F1180107F118033A6E184644F055FEFB
:1044100078657B6D002B70D107F1180207F124013C
:1044200007F11803184644F0F9FD78657B6D002B01
:1044300065D1BB6803F14C0207F1180107F11803BD
:10444000184645F0DEF878657B6D002B59D1FB6E80
:104450001B68FA6E1268396F8A1A104607F1140247
:1044600007F130010190009313467A68B86837F07D
:1044700077FA78657B6D002B45D1FB6E1A687B69F6
:104480001A44FB6E1A6007F11803184644F005FB46
:1044900003467B61FB6E1B683A6F9A420BD3FB6E3F
:1044A0001B683A6FD31A1A467B6901339A4202D3CA
:1044B0007B69FF2B02D91F4B7B6527E07869FB6E78
:1044C0001B68591CFA6E1160C2B21A70FB6E196833
:1044D0007A6907F11803184644F088FB78657B6D0C
:1044E000002B12D1FB6E1A687B691A44FB6E1A60AE
:1044F0000CE000BF0AE000BF08E000BF06E000BF1C
:1045000004E000BF02E000BF00E000BF07F130039D
:10451000184636F0DFFF07F12403184644F024F96B
:1045200007F11803184644F01FF97B6D18465837F9
:10453000BD4680BD00B1FFFF80B58AB004AFF86012
:10454000B9607A603B606FF06D037B61BB6A1B688A
:10455000FA6A9A4201D2184B29E0BB6A1B68FA6AD0
:10456000D31ABA6A396AB86837F060F978617B693A
:10457000002B1AD1386A37F03DF80346002B02D0E1
:104580000E4B7B6112E0FB6A0393BB6A02937B6A6A
:1045900001933B6A00933B687A68B968F868FFF753
:1045A00011FE78617B69002B00E000BF7B69184633
:1045B0001837BD4680BD00BF80B0FFFF80B3FFFF4E
:1045C00080B58EB008AFF860B9607A603B606FF07C
:1045D0006D037B61FB6A1B683A6B9A4201D2254BE3
:1045E00044E0BB6B01937B6B00937B6A3A6A39684A
:1045F000B86838F099F978617B69002B32D1FB6A91
:104600001B68FA6A1268396B8A1A114607F11002A0
:104610000191009313467A68796AB86837F0A0F977
:1046200078617B69002B1FD1FB6A1A683B691A44C9
:10463000FB6A1A60BB6B06937B6B05933B6B049321
:10464000FB6A0393BB6A02937B6A01933B6A009304
:104650003B687A68B968F868FFF78CFE78617B6917
:10466000002B02E000BF00E000BF7B69184618374E
:10467000BD4680BD00B1FFFF80B58CB004AFF860CF
:10468000B9607A603B606FF06D03FB617B6B7B61AF
:104690007A6BBB6B1344BB61BB69039307F11403D3
:1046A00002933B6B0193BB6A00933B687A68B968DD
:1046B000F868FFF741FFF861FB69002B19D1BB696E
:1046C000039307F1140302933B6B0193FB6A00937E
:1046D0003B687A68B968F868FFF72EFFF861FB69F4
:1046E000002B08D17B69BA699A4206D0064BFB6160
:1046F00004E000BF02E000BF00E000BFFB69184615
:104700002037BD4680BD00BF80B0FFFF80B590B0B0
:1047100008AFF860B9607A603B606FF06D03FB61D1
:10472000FB6B7B61FA6B3B6C1344BB61FB6C0693C8
:10473000BB6C0593BB69049307F114030393BB6B34
:104740000293FB6A0193BB6A00933B687A68B9687D
:10475000F868FFF735FFF861FB69002B1FD1FB6C90
:104760000693BB6C0593BB69049307F11403039391
:10477000BB6B02937B6B01933B6B00933B687A6846
:10478000B968F868FFF71CFFF861FB69002B08D1D6
:104790007A69FB6BD31A1A467B6C1A6002E000BF81
:1047A00000E000BFFB6918462037BD4680BDF0B56C
:1047B0008BB006AFF860B9607A60FB681C68FB6874
:1047C0001D1DFB68D3F88460FB6803F12C0CFB68AB
:1047D000D033FA68F432F96891F88010C1F1010120
:1047E0000A4850F8211078680490B8680390029144
:1047F000019200936346324629462046FFF73CFF6C
:10480000034618461437BD46F0BD00BF20820500A0
:10481000F0B591B00AAF78613961FA60BB607B692D
:104820001E687B6903F1040C7B69D3F884307B60DC
:104830007B6903F12C0E7B6903F59E737A698832DC
:10484000796901F5A4717869AC307C6994F880408D
:1048500025460E4C54F825407D6B09953D6B089517
:10486000BD680795FD6806953D690595049403901C
:1048700002910192009373467A6861463046FFF7D1
:1048800045FF034618461C37BD46F0BD2082050093
:1048900080B58AB002AFF860B9607A603B606FF0B3
:1048A0006D03FB6107F11003184643F057FF07F152
:1048B00010030121184644F063F8F861FB69002BEE
:1048C0001FD107F110023B68019307F11003009319
:1048D0007B68B968F86837F0A7FFF861FB69002BBF
:1048E00011D107F11002BB6A019307F11003009385
:1048F000BB68B968F86837F097FFF861FB69002B6F
:1049000002E000BF00E000BF07F11003184643F0CB
:104910002BFFFB6918462037BD4680BDF0B5B5B00A
:1049200004AFF860B9607A606FF06D03C7F8BC300F
:10493000BB68C7F8B430BA687B681344C7F8B830AE
:1049400007F13803184636F061FD07F114031846E5
:1049500036F04EFDFB68181DFB6803F18802FB680A
:1049600003F1AC04FB68D03307F114010093234634
:10497000FFF78EFFC7F8BC00D7F8BC30002B4DD135
:10498000FB6893F88030002B17D107F1B40107F1D1
:1049900038037A68184637F06FF8C7F8BC00D7F8C4
:1049A000BC30002B3CD197F83820FB681B799A4229
:1049B00003D0264BC7F8BC3037E0FB681868FB68AB
:1049C0001C1DFB68D3F88450FB6803F58C73FA68F0
:1049D00092F88020C2F101021D4951F8222007F10E
:1049E0001406D7F8B810039107F1B40102910192AF
:1049F000009333462A462146FFF79EFDC7F8BC00C8
:104A0000D7F8BC30002B0DD1D7F8B430D7F8B82088
:104A10009A4209D00F4BC7F8BC3006E000BF04E053
:104A200000BF02E000BF00E000BF07F138031846F6
:104A300036F060FD07F11403184636F04BFDD7F849
:104A4000BC301846C437BD46F0BD00BF80B1FFFF83
:104A50002082050080B0FFFF80B588B000AFF8600D
:104A6000B9607A603B606FF06D03FB6107F1100382
:104A7000184643F073FE07F110003B6BFA6A1021F1
:104A800044F06FFEF861FB69002B32D107F1100191
:104A900007F11003BA6A184644F00FFBF861FB698E
:104AA000002B28D107F1100107F110033A681846CE
:104AB00044F092FAF861FB69002B1ED107F1100354
:104AC0001A467968F86844F0F8FAF861FB69002B37
:104AD00015D1FB681B68BA6802FB03F2FB681A6019
:104AE000BA6AF968F86844F08CFDF861FB69002B3C
:104AF00006E000BF04E000BF02E000BF00E000BF2E
:104B000007F11003184643F02FFEFB6918462037C3
:104B1000BD4680BDB0B5A6B008AFF860B9607A6098
:104B20003B606FF06D037B67BB68BB61BA687B68F5
:104B300013443B6707F14C03184636F059FC07F164
:104B40002803184636F054FC07F11C03184643F0BE
:104B500005FEFB68181DFB6803F1D002FB6803F13A
:104B6000F404FB68883307F14C0100932346FFF7F8
:104B70008FFE78677B6F002B40F0A380FB6803F506
:104B8000A471FB6803F5AA74FB68503307F11C009D
:104B9000D7F88C200292D7F8882001920093234600
:104BA0000A460121FFF758FF78677B6F002B40F022
:104BB0008A80FB68181D07F14C0407F11C0207F1FD
:104BC0002801D7F88C300193D7F88830009323461A
:104BD00037F0BCFD78677B6F002B76D1FB6893F8CC
:104BE0008030012B19D1BB693A6F9A4202D2444BF3
:104BF0007B6771E0FB68181DBC69BB693A6FD31A0B
:104C000007F11401224636F089FF78677B6F002B8D
:104C10005DD1BA697B691344BB61BB693A6F9A4243
:104C200002D2374B7B6757E0FB68181DFB68D3F84F
:104C30008440BB69BA69396F8A1A154607F11402B4
:104C400007F12801019500931346224636F088FEAD
:104C500078677B6F002B3CD1BA697B691344BB61D9
:104C6000FB681868FB68191DFB68D3F88440FB6873
:104C700093F880301A46234B53F8223007F14C0545
:104C8000D7F88C200692D7F8882005923A6F0492C4
:104C900007F118020392029307F12803019307F129
:104CA0001C0300932B462246FFF764FB78677B6F5B
:104CB000002B10D1BA69BB68D31A1A463B681A6038
:104CC0000AE000BF08E000BF06E000BF04E000BF4C
:104CD00002E000BF00E000BF07F14C03184636F0C9
:104CE000F9FB07F12803184636F0F4FB07F11C0323
:104CF000184643F039FD7B6F18467837BD46B0BD86
:104D000000B1FFFF2082050090B5ABB004AFF860A2
:104D1000B9607A603B606FF06D03C7F89430FB6850
:104D20001B68184645F0F3FA03461A463B681A60BA
:104D30003B681B687A689A4201D2564BA5E007F19E
:104D40006C03184636F054FB07F16003184643F035
:104D500005FD07F15403184643F000FD07F1540325
:104D60000121184643F00CFEC7F89400D7F89430A0
:104D7000002B70D1FB6803F5A471FB6803F5AA74DE
:104D8000FB68503307F16000D7F8AC200292D7F8E7
:104D9000A8200192009323460A464FF0FF31FFF707
:104DA0005BFEC7F89400D7F89430002B55D1FB6810
:104DB000181DFB6803F58C74FB68F43307F154028B
:104DC00007F16C01019307F160030093234637F06C
:104DD0002BFDC7F89400D7F89430002B3FD1FB6827
:104DE000181DFB6803F5A47207F16C0407F16C0150
:104DF000D7F8AC300193D7F8A8300093234637F0AA
:104E0000A5FCC7F89400D7F89430002B29D1FB6893
:104E1000DB6D0733DB08C7F8903007F1100107F1AD
:104E20006C03D7F89020184643F0E0FEC7F89400D2
:104E3000D7F89430002B16D1FB68186807F11001E1
:104E4000BB68D7F890200EF03DFCC7F89400D7F867
:104E50009430002B08E000BF06E000BF04E000BF74
:104E600002E000BF00E000BF07F16C03184636F017
:104E700031FB07F16003184643F076FC07F1540359
:104E8000184643F071FCD7F8943018469C37BD465D
:104E900090BD00BF00B1FFFF10F8012B11F8013BDE
:104EA000012A28BF9A42F7D0D01A7047034613F858
:104EB000012B002AFBD1181A013870477047FCF704
:104EC0003FBF0246037AC0680844D0605938FDF7F6
:104ED00057BA012202720022C2740A796AB1002212
:104EE00002824A795AB1042282748A686C32C260A2
:104EF000C96841610321817070472B22F0E70322CA
:104F0000F2E710B5044600202072E074087980B101
:104F100000202082487970B10420A074C8686C30E9
:104F2000E0608968A069FCF7BDFD60610420A070A5
:104F300010BD2B20EDE70320EFE700218170017009
:104F40004170704770B5FBF773FD0546002406E01D
:104F50002046FBF773FDFFF7F0FF641CE4B2AC42A0
:104F6000F6D370BD10B50446FBF768FD010004D010
:104F700008786FF0220268B902E06FF0010010BDFE
:104F8000887838B1022807D0012805D001200870A0
:104F9000002010BD104610BD2046FBF799FCF7E736
:104FA0002DE9F0410E460746FBF742FD0546002479
:104FB0000AE02046FBF742FD807818B14FF0FF3041
:104FC000BDE8F081641CE4B2AC42F2D3082E02D9F1
:104FD0006FF01500F4E717B13146384601E00021C3
:104FE0000846BDE8F041FBF711BD0020FDF7BCBE4F
:104FF0000520FDF7B9BE410A43F609525143C0F3FB
:10500000080010FB02F000F5807001EB50207047A3
:10501000FCF79EBD002809DB00F01F020121914032
:105020004009800000F1E020C0F88012704700289D
:105030000DDB00F01F02012191404009800000F1CA
:10504000E020C0F88011BFF34F8FBFF36F8F704720
:105050004058002800D001207047D0F80C24D0F828
:105060000C0402F00102C00303D58A4201D10120E1
:1050700070470020704710B501218807FEF712FA2B
:10508000002800D0012010BD4FF0804001210160B8
:1050900070474FF08041D1F81824D1F8181402F06D
:1050A0000302C90303D5824201D1012070470020C9
:1050B000704710B500214FF08040FEF7F3F900284B
:1050C00000D0012010BD002809DB00F01F020121E3
:1050D00091404009800000F1E020C0F88012704744
:1050E00000280DDB00F01F020121914040098000E3
:1050F00000F1E020C0F88011BFF34F8FBFF36F8F36
:10510000704700100200FA0022383EE847152F547D
:10511000290E1FD23ECB0E9D5D25DBD9002809DB71
:1051200000F01F02012191404009800000F1E020C1
:10513000C0F880127047EFF3108172B60278012A2E
:1051400001D0012200E000220123037001B962B600
:105150000AB1002070476FF02200704700210170F3
:1051600008467047EFF3108172B60022027001B951
:1051700062B600207047FEF7BBBA4FF08050D0F8FF
:1051800030010F2801D000207047012070474FF0F8
:105190008050D0F830010A2801D00020704701204B
:1051A00070474FF08050D0F830010E2801D0002019
:1051B0007047012070474FF08050D0F83001102820
:1051C00001D000207047012070474FF08050D0F888
:1051D0003001062803D0401C01D000207047012078
:1051E00070474FF08050D0F830010D2801D00020DA
:1051F0007047012070474FF08050D0F830010828E8
:1052000001D0002070470120704730B50346CCB272
:1052100004E0002A14D003F8014B521E9D07F8D178
:10522000C9B241EA012141EA014101E002C3121F72
:10523000042AFBD202E003F8014B521E002AFAD1E5
:1052400030BD00B50246FEF7B5FB904201D9012002
:1052500000BD002000BD450302053102020400002C
:1052600001232DE9F04180F825304FF47A73A1FB3A
:10527000036700234361264B5968044600F114027A
:1052800041BBC3E9002241F050FB224AA061002348
:1052900030463946FAF7D4FF1E49206201FB106000
:1052A000E0611D4841F04EFB054620B1236A43BB37
:1052B000E369984225DD18481BF080F9236A002B2A
:1052C0000BDD55B910A3D3E90023BDE8F041124826
:1052D00007F05CBC0A605A60D5E7E1694FF4004012
:1052E00021EAE17140F2E7340025C0FB01454FF4AB
:1052F0007A72002320462946FAF7A2FF02460B469F
:10530000E3E7BDE8F08100BF05C64D621000000074
:10531000F89200209BFFFF7F4013002008B5114842
:1053200049213FF0FBFE01221146104600F042FAEF
:1053300028B1BDE808400C4845213FF0EFBE0DF014
:1053400087FB024628B1BDE80840084845213FF0E8
:10535000E5BE074807F016F907F0FAF8BDE808407F
:1053600007F016B9ACBD0500CABD0500F4BD0500C7
:10537000994D0400014849213FF0D0BE2DBE0500E3
:105380002DE9F043DFF8089199F810308DB00E4602
:10539000144633B9394857213FF0C0FE0DB0BDE87F
:1053A000F083084647F037FD1028DFF8E88007460D
:1053B00054D1304647F036FD01284FD130484921BD
:1053C0003FF0ACFE0FCC01AD0FC50FCC0FC594E87C
:1053D000070085E807003A46002101A846F0E3FFF0
:1053E000D8F80800002147F0E5FC04460028D5D095
:1053F0004522394647F0EBFC304647F01FFD054695
:10540000304647F014FD29460246204647F0FBFC93
:1054100078BB204647F0FDFC58BBD8F8080048F0A0
:1054200010F83A4601460546204647F0CCFE0346B2
:10543000F8B9D8F8080001AA214622F0F5F9C0B958
:10544000104A114849213FF069FE3A462946032097
:1054500001F086FED9F8143098479FE70B48572192
:105460003FF05CFED8F8080001AA314600F0EAF9E6
:1054700094E7204647F09FFE90E700BF47BE050037
:1054800085BE0500A7BE0500C2BE0500CABE050058
:105490007000002060000020034B044AC3E9012093
:1054A000034A1846117470476000002081530000C1
:1054B00070000020014849213FF030BE32BF050096
:1054C0002DE9F043DFF8F08098F810308DB00E46EB
:1054D000144633B9334857213FF020FE0DB0BDE8E4
:1054E000F083084647F097FCDFF8D0900746002885
:1054F00049D1304647F096FC012844D12A48492139
:105500003FF00CFE0FCC01AD0FC50FCC0FC594E8DA
:10551000070085E807001022394601A846F043FF3E
:10552000D9F80800394647F045FC04460028D5D094
:1055300045232022314647F04CFC78BB204647F0FB
:1055400068FC58BBD9F8080047F07BFF10220146E1
:105550000546204647F037FE0346F8B9D9F808005B
:1055600001AA214622F060F9C0B9104A1048492129
:105570003FF0D4FD10222946032001F0F1FDD8F8B8
:1055800014309847AAE70B4857213FF0C7FDD9F8D8
:10559000080001AA314600F055F99FE7204647F080
:1055A0000AFE9BE74BBF050087BF0500A8BF0500AB
:1055B000C2BE0500C2BF0500980000208800002080
:1055C000034B044AC3E90120034A1846117470478B
:1055D00088000020C15400009800002001484921A3
:1055E0003FF09CBD28C005002DE9F043504B144608
:1055F0001A7C8DB00E46984622B94E4857213FF08E
:105600008DFD76E0084647F006FC0746002873D17A
:10561000304647F007FC01286ED1474849213FF04A
:105620007DFD0FCC01AD0FC50FCC0FC594E8070071
:1056300085E80700414D1022394601A846F0B3FE27
:105640003946A86847F0B6FB39468146A86847F056
:10565000B1FB0446B9F1000F64D000285FD03B468F
:1056600020223146484647F0B4FB0346002856D175
:10567000A86801AA494622F0D7F8074600284ED16B
:105680002F4849213FF04AFD39464522204647F040
:105690009EFB304647F0D2FB0746304647F0C7FB3B
:1056A00039460246204647F0AEFB002837D1204657
:1056B00047F0AFFB98BBA86847F0C3FE1022064630
:1056C0000146204647F07FFD48BBA868002301AA99
:1056D000214622F0A9F810BB1A4A1B4849213FF085
:1056E0001DFD10223146032001F03AFDD8F8143098
:1056F00098470DB0BDE8F083304647F08CFB20287A
:1057000002D1124849217AE7114857213FF006FD9E
:105710000A4B01AA9868314600F094F8E9E7484638
:1057200047F049FD002CE4D0204647F044FDE0E777
:10573000C000002042C0050080C00500B00000206D
:10574000A2C00500BCC00500C2BE0500D7C0050050
:10575000FEC00500034B044AC3E90120034A184672
:1057600011747047B0000020E9550000C00000200F
:1057700070B50E488CB00E46144649213FF0CEFC61
:105780000FCC01AD0FC50FCC0FC594E8070085E81D
:1057900007001022002101A846F005FE044B01AAD3
:1057A0001868314600F04EF80CB070BD66C10500B7
:1057B000D8000020F8B507460E46154640F02AFFEF
:1057C0001C4C206040B91C4845213FF0A7FC012437
:1057D000201E18BF0120F8BD3946FFF75DFE314697
:1057E00007462068FFF7ECFE294606462068FFF7CB
:1057F000B1FF002211490546206847F038FB2068B8
:10580000394647F02AFB2068314647F026FB2068DE
:10581000294647F022FB206841F2336147F013FB31
:1058200004460028D4D00246452105483FF076FCC6
:10583000CEE700BFD8000020ADC1050071570000C1
:10584000D8C10500F8B50C4600210646174647F0BA
:10585000B1FA0546A0B121460023302247F0B9FA3B
:10586000044678B903463A462946304621F0DCFF23
:10587000044638B9054849213FF050FC2046F8BDA0
:105880000324FBE7284647F096FCF7E70EC2050025
:105890000B0706D5034BC35C03F00303012B08BFC2
:1058A00020307047B32E060030B50A4C0A449142AE
:1058B00000D130BD11F8013B58400309E35C83EA95
:1058C0000013DDB2C3F30313E05C80EA0510C0B23D
:1058D000EDE700BF35C20500436803F00303022B68
:1058E00070B504460E46816010D0032B04D0012B06
:1058F0000FD10025284601E00568002000236360E1
:1059000010B131461BF012FE284670BD006800251C
:10591000F4E7064A0649074845233FF0FFFB0348E2
:1059200045213FF01AFF0025E7E700BF45C205000B
:105930009829060068C205002DE9F04F87B00F4690
:105940001946109B9DF844B09DF848A01F4C064690
:105950001425104698464FEAE37950EA010319D11D
:10596000142D139C14BF013530232C4408BF8DF82F
:105970001430152C1BD0153C002C1ADC1DF805002A
:1059800039460135B047152DF8D1002C19DC07B088
:10599000BDE8F08F42464B46FAF752FCA25C0DF888
:1059A000052084460B4660461946013DD5E7002494
:1059B000E4E7BBF1000FE1D039465046B047013C67
:1059C000DAE739465046B047013CDEE785C20500BC
:1059D0000B6801330B60014B1B681847E000002087
:1059E000014B1860704700BFE00000202DE9F04F28
:1059F000002687B005468B461C4602F1FF3A4FF061
:105A0000FF3837464FF0000907E0B9F1000F0BD11E
:105A1000252800F00A815946A8471AF8010F0028E6
:105A2000F3D107B0BDE8F08F7A280AD8622810D8E1
:105A3000302851D044D8252800F0F5802D2800F0DA
:105A4000FB8059462520A8479AF800005946A847E8
:105A5000D8E7A0F16303172BF3D801A252F823F083
:105A60001F5C0000215B0000435A0000435A000005
:105A7000435A0000035B0000215B0000435A000012
:105A8000435A0000035B0000435A0000435A0000E1
:105A9000435A00009B5B0000435A0000435A000039
:105AA000E75B0000435A0000215B0000435A0000FE
:105AB000435A0000C95A0000435A0000035B00002B
:105AC000392815D95828BCD19AF80030702B6ED1DE
:105AD00054F8042B002375E0B8F1000F0BDA002F07
